:020000040800F2
:1000000000500020FD3600086536000867360008FD
:10001000693600086B3600086D36000800000000E5
:100020000000000000000000000000006F36000823
:1000300071360008000000007336000875360008AD
:1000400045370008453700084537000845370008A0
:100050004537000845370008453700084537000890
:100060004537000845370008453700084537000880
:100070004537000845370008453700084537000870
:100080004537000845370008453700084537000860
:100090004537000845370008453700084537000850
:1000A0004537000881360008453700084537000805
:1000B0009136000845370008A1360008453700088A
:1000C0004537000845370008453700084537000820
:1000D0004537000845370008453700084537000810
:1000E0004537000845370008453700080000000084
:1000F0000000000000000000000000000000000000
:0C01000000000000000000005FF808F1A3
:1001100010B5054C237833B9044B13B10448AFF341
:1001200000800123237010BD240000200000000087
:10013000A037000808B5034B1BB103490348AFF3D0
:10014000008008BD0000000028000020A037000843
:1001500081F0004102E000BF83F0004330B54FEA78
:1001600041044FEA430594EA050F08BF90EA020FE5
:100170001FBF54EA000C55EA020C7FEA645C7FEA78
:10018000655C00F0E2804FEA5454D4EB5555B8BF9B
:100190006D420CDD2C4480EA020281EA030382EA0C
:1001A000000083EA010180EA020281EA0303362D9E
:1001B00088BF30BD11F0004F4FEA01314FF4801C71
:1001C0004CEA113102D0404261EB410113F0004F83
:1001D0004FEA03334CEA133302D0524263EB43033A
:1001E00094EA050F00F0A780A4F10104D5F1200ED8
:1001F0000DDB02FA0EFC22FA05F2801841F1000133
:1002000003FA0EF2801843FA05F359410EE0A5F106
:1002100020050EF1200E012A03FA0EFC28BF4CF037
:10022000020C43FA05F3C01851EBE37101F00045ED
:1002300007D54FF0000EDCF1000C7EEB00006EEBFA
:100240000101B1F5801F1BD3B1F5001F0CD3490884
:100250005FEA30004FEA3C0C04F101044FEA4452DB
:1002600012F5800F80F09A80BCF1004F08BF5FEA62
:10027000500C50F1000041EB045141EA050130BD42
:100280005FEA4C0C404141EB010111F4801FA4F1E5
:100290000104E9D191F0000F04BF01460020B1FA3A
:1002A00081F308BF2033A3F10B03B3F120020CDA72
:1002B0000C3208DD02F1140CC2F10C0201FA0CF050
:1002C00021FA02F10CE002F11402D8BFC2F1200CB5
:1002D00001FA02F120FA0CFCDCBF41EA0C0190406B
:1002E000E41AA2BF01EB0451294330BD6FEA0404B4
:1002F0001F3C1CDA0C340EDC04F11404C4F120029F
:1003000020FA04F001FA02F340EA030021FA04F3B0
:1003100045EA030130BDC4F10C04C4F1200220FA07
:1003200002F001FA04F340EA0300294630BD21FA45
:1003300004F0294630BD94F0000F83F4801306BF0B
:1003400081F480110134013D4EE77FEA645C18BFFF
:100350007FEA655C29D094EA050F08BF90EA020F96
:1003600005D054EA000C04BF1946104630BD91EA8E
:10037000030F1EBF0021002030BD5FEA545C05D191
:100380004000494128BF41F0004130BD14F58004D0
:100390003CBF01F5801130BD01F0004545F0FE4144
:1003A00041F470014FF0000030BD7FEA645C1ABF79
:1003B000194610467FEA655C1CBF0B46024650EAB0
:1003C000013406BF52EA033591EA030F41F40021DC
:1003D00030BD00BF90F0000F04BF0021704730B562
:1003E0004FF4806404F132044FF000054FF0000137
:1003F00050E700BF90F0000F04BF0021704730B5F8
:100400004FF4806404F1320410F0004548BF4042CC
:100410004FF000013EE700BF42004FEAE2014FEA21
:1004200031014FEA02701FBF12F07F4393F07F4FFC
:1004300081F06051704732F07F4208BF704793F0FF
:100440007F4F04BF41F40021704730B54FF4607412
:1004500001F0004521F000411CE700BF50EA010215
:1004600008BF704730B54FF000050AE050EA0102BE
:1004700008BF704730B511F0004502D5404261EB2E
:1004800041014FF4806404F132045FEA915C3FF46F
:10049000D8AE4FF003025FEADC0C18BF03325FEA0C
:1004A000DC0C18BF033202EBDC02C2F1200300FABD
:1004B00003FC20FA02F001FA03FE40EA0E0021FAE2
:1004C00002F11444BDE600BF70B54FF0FF0C4CF4D0
:1004D000E06C1CEA11541DBF1CEA135594EA0C0F82
:1004E00095EA0C0F00F0DEF82C4481EA030621EABD
:1004F0004C5123EA4C5350EA013518BF52EA0335F8
:1005000041F4801143F4801338D0A0FB02CE4FF0A9
:100510000005E1FB02E506F00042E0FB03E54FF0D9
:100520000006E1FB03569CF0000F18BF4EF0010ED1
:10053000A4F1FF04B6F5007F64F5407404D25FEACD
:100540004E0E6D4146EB060642EAC62141EA555180
:100550004FEAC52040EA5E504FEACE2EB4F1FD0CC2
:1005600088BFBCF5E06F1ED8BEF1004F08BF5FEA40
:10057000500E50F1000041EB045170BD06F00046F2
:1005800046EA010140EA020081EA0301B4EB5C049F
:10059000C2BFD4EB0C0541EA045170BD41F4801197
:1005A0004FF0000E013C00F3AB8014F1360FDEBFBC
:1005B000002001F0004170BDC4F10004203C35DA98
:1005C0000C341BDC04F11404C4F1200500FA05F31B
:1005D00020FA04F001FA05F240EA020001F00042BC
:1005E00021F0004110EBD37021FA04F642EB060132
:1005F0005EEA430E08BF20EAD37070BDC4F10C045C
:10060000C4F1200500FA04F320FA05F001FA04F21F
:1006100040EA020001F0004110EBD37041F100010B
:100620005EEA430E08BF20EAD37070BDC4F1200516
:1006300000FA05F24EEA020E20FA04F301FA05F27E
:1006400043EA020321FA04F001F0004121FA04F226
:1006500020EA020000EBD3705EEA430E08BF20EAF6
:10066000D37070BD94F0000F0FD101F00046400030
:1006700041EB010111F4801F08BF013CF7D041EAB2
:10068000060195F0000F18BF704703F000465200B6
:1006900043EB030313F4801F08BF013DF7D043EA87
:1006A0000603704794EA0C0F0CEA135518BF95EA3D
:1006B0000C0F0CD050EA410618BF52EA4306D1D1C4
:1006C00081EA030101F000414FF0000070BD50EAE3
:1006D000410606BF1046194652EA430619D094EA6D
:1006E0000C0F02D150EA013613D195EA0C0F05D157
:1006F00052EA03361CBF104619460AD181EA0301AB
:1007000001F0004141F0FE4141F470014FF0000062
:1007100070BD41F0FE4141F4780170BD70B54FF0FD
:10072000FF0C4CF4E06C1CEA11541DBF1CEA13557D
:1007300094EA0C0F95EA0C0F00F0A7F8A4EB05045F
:1007400081EA030E52EA03354FEA013100F0888056
:100750004FEA03334FF0805545EA131343EA12631F
:100760004FEA022245EA111545EA10654FEA0026D4
:100770000EF000419D4208BF964244F1FD0404F58D
:10078000407402D25B084FEA3202B61A65EB0305E9
:100790005B084FEA32024FF480104FF4002CB6EBA6
:1007A000020E75EB030E22BFB61A754640EA0C0026
:1007B0005B084FEA3202B6EB020E75EB030E22BF66
:1007C000B61A754640EA5C005B084FEA3202B6EBA7
:1007D000020E75EB030E22BFB61A754640EA9C0066
:1007E0005B084FEA3202B6EB020E75EB030E22BF36
:1007F000B61A754640EADC0055EA060E18D04FEAF4
:10080000051545EA16754FEA06164FEAC30343EA93
:1008100052734FEAC2025FEA1C1CC0D111F4801F60
:100820000BD141EA00014FF000004FF0004CB6E759
:1008300011F4801F04BF01430020B4F1FD0C88BFF8
:10084000BCF5E06F3FF6AFAEB5EB030C04BFB6EB03
:10085000020C5FEA500C50F1000041EB045170BDF6
:100860000EF0004E4EEA113114EB5C04C2BFD4EB23
:100870000C0541EA045170BD41F480114FF0000EA7
:10088000013C90E645EA060E8DE60CEA135594EA23
:100890000C0F08BF95EA0C0F3FF43BAF94EA0C0F26
:1008A0000AD150EA01347FF434AF95EA0C0F7FF49B
:1008B00025AF104619462CE795EA0C0F06D152EAEF
:1008C00003353FF4FDAE1046194622E750EA4106D3
:1008D00018BF52EA43067FF4C5AE50EA41047FF4E4
:1008E0000DAF52EA43057FF4EBAE12E74FEA410247
:1008F000B2F1E04324BFB3F5001CDCF1FE5C0DD97E
:1009000001F0004C4FEAC0024CEA5070B2F1004FC7
:1009100040EB830008BF20F00100704711F0804FCA
:1009200021D113F13872BCBF01F00040704741F48F
:1009300080114FEA5252C2F11802C2F1200C10FA93
:100940000CF320FA02F018BF40F001004FEAC12377
:100950004FEAD32303FA0CFC40EA0C0023FA02F31B
:100960004FEA4303CCE77FEA625307D150EA0133F1
:100970001EBF4FF0FE4040F44000704701F00040C1
:1009800040F0FE4040F40000704700BF80F000409F
:1009900002E000BF81F0004142001FBF5FEA410357
:1009A00092EA030F7FEA226C7FEA236C6AD04FEA57
:1009B0001262D2EB1363C1BFD2184140484041409C
:1009C000B8BF5B42192B88BF704710F0004F40F44E
:1009D000000020F07F4018BF404211F0004F41F46A
:1009E000000121F07F4118BF494292EA030F3FD036
:1009F000A2F1010241FA03FC10EB0C00C3F1200349
:100A000001FA03F100F0004302D5494260EB4000D7
:100A1000B0F5000F13D3B0F1807F06D340084FEA42
:100A2000310102F10102FE2A51D2B1F1004F40EB37
:100A3000C25008BF20F0010040EA0300704749009F
:100A400040EB000010F4000FA2F10102EDD1B0FA6A
:100A500080FCACF1080CB2EB0C0200FA0CF0AABF5F
:100A600000EBC25052421843BCBFD04018437047FD
:100A700092F0000F81F4000106BF80F40000013203
:100A8000013BB5E74FEA41037FEA226C18BF7FEADA
:100A9000236C21D092EA030F04D092F0000F08BF1C
:100AA0000846704790EA010F1CBF0020704712F003
:100AB0007F4F04D1400028BF40F00040704712F142
:100AC00000723CBF00F50000704700F0004343F0A7
:100AD000FE4040F4000070477FEA226216BF0846DD
:100AE0007FEA23630146420206BF5FEA412390EAA0
:100AF000010F40F4800070474FF0000304E000BF96
:100B000010F0004348BF40425FEA000C08BF704746
:100B100043F0964301464FF000001CE050EA01020A
:100B200008BF70474FF000030AE000BF50EA01021F
:100B300008BF704711F0004302D5404261EB41010C
:100B40005FEA010C02BF84460146002043F0B64331
:100B500008BFA3F18053A3F50003BCFA8CF2083A56
:100B6000A3EBC25310DB01FA02FC634400FA02FC5F
:100B7000C2F12002BCF1004F20FA02F243EB020066
:100B800008BF20F00100704702F1200201FA02FCC8
:100B9000C2F1200250EA4C0021FA02F243EB0200BB
:100BA00008BF20EADC7070474FF0FF0C1CEAD052FF
:100BB0001EBF1CEAD15392EA0C0F93EA0C0F6FD0C0
:100BC0001A4480EA010C400218BF5FEA41211ED09E
:100BD0004FF0006343EA501043EA5111A0FB01318A
:100BE0000CF00040B1F5000F3EBF490041EAD3715F
:100BF0005B0040EA010062F17F02FD2A1DD8B3F1DB
:100C0000004F40EBC25008BF20F00100704790F049
:100C1000000F0CF0004C08BF49024CEA502040EA9B
:100C200051207F3AC2BFD2F1FF0340EAC250704761
:100C300040F400004FF00003013A5DDC12F1190F9F
:100C4000DCBF00F000407047C2F10002410021FA11
:100C500002F1C2F1200200FA02FC5FEA310040F129
:100C6000000053EA4C0308BF20EADC70704792F0A2
:100C7000000F00F0004C02BF400010F4000F013ADA
:100C8000F9D040EA0C0093F0000F01F0004C02BFD5
:100C9000490011F4000F013BF9D041EA0C018FE744
:100CA0000CEAD15392EA0C0F18BF93EA0C0F0AD04A
:100CB00030F0004C18BF31F0004CD8D180EA010070
:100CC00000F00040704790F0000F17BF90F0004F09
:100CD000084691F0000F91F0004F14D092EA0C0FEB
:100CE00001D142020FD193EA0C0F03D14B0218BF7E
:100CF000084608D180EA010000F0004040F0FE40C4
:100D000040F40000704740F0FE4040F4400070475F
:100D10004FF0FF0C1CEAD0521EBF1CEAD15392EADE
:100D20000C0F93EA0C0F69D0A2EB030280EA010CCE
:100D300049024FEA402037D04FF0805343EA111167
:100D400043EA10130CF000408B4238BF5B0042F1C5
:100D50007D024FF4000C8B4224BF5B1A40EA0C006A
:100D6000B3EB510F24BFA3EB510340EA5C00B3EB9C
:100D7000910F24BFA3EB910340EA9C00B3EBD10F8A
:100D800024BFA3EBD10340EADC001B0118BF5FEADC
:100D90001C1CE0D1FD2A3FF650AF8B4240EBC25005
:100DA00008BF20F0010070470CF0004C4CEA5020C6
:100DB0007F32C2BFD2F1FF0340EAC250704740F415
:100DC00000004FF00003013A37E792F0000F00F007
:100DD000004C02BF400010F4000F013AF9D040EA85
:100DE0000C0093F0000F01F0004C02BF490011F419
:100DF000000F013BF9D041EA0C0195E70CEAD15311
:100E000092EA0C0F08D142027FF47DAF93EA0C0FF7
:100E10007FF470AF084676E793EA0C0F04D14B02DB
:100E20003FF44CAF08466EE730F0004C18BF31F08D
:100E3000004CCAD130F000427FF45CAF31F0004387
:100E40007FF43CAF5FE700BF4FF0FF3C06E000BF20
:100E50004FF0010C02E000BF4FF0010C4DF804CD43
:100E60004FEA40024FEA41037FEA226C18BF7FEA53
:100E7000236C11D001B052EA530C18BF90EA010F55
:100E800058BFB2EB030088BFC81738BF6FEAE170E4
:100E900018BF40F0010070477FEA226C02D15FEA80
:100EA000402C05D17FEA236CE4D15FEA412CE1D0EC
:100EB0005DF8040B704700BF844608466146FFE7B3
:100EC0000FB5FFF7C9FF002848BF10F1000F0FBD95
:100ED0004DF808EDFFF7F4FF0CBF012000205DF88E
:100EE00008FB00BF4DF808EDFFF7EAFF34BF012013
:100EF00000205DF808FB00BF4DF808EDFFF7E0FFAC
:100F000094BF012000205DF808FB00BF4DF808EDFC
:100F1000FFF7D2FF94BF012000205DF808FB00BF5F
:100F20004DF808EDFFF7C8FF34BF012000205DF841
:100F300008FB00BF4FEA4002B2F1FE4F0FD34FF063
:100F40009E03B3EB12620DD94FEA002343F0004336
:100F500010F0004F23FA02F018BF404270474FF0E4
:100F60000000704712F1610F01D1420205D110F06B
:100F7000004008BF6FF0004070474FF0000070471E
:100F800010B504460E4B18784FF47A73B3FBF0F3A8
:100F90000C4A1068B0FBF3F000F0DCFB68B90F2CD2
:100FA00001D901200AE0002221464FF0FF3000F075
:100FB00091FB034B5C60002000E0012010BD00BFEE
:100FC000000000202000002008B5074A136843F005
:100FD00010031360032000F06BFB0020FFF7D0FF2D
:100FE00002F018FA002008BD00200240034A1168F0
:100FF000034B1B780B441360704700BFA000002018
:1010000000000020014B1868704700BFA0000020BE
:10101000F0B583B005460C4600230193FFF7F2FFBD
:101020002B689A6812F4807F23D106465A6812F41E
:10103000807F03D1DB6A13F4700F24D04B4B1F6801
:10104000022001F053F8B7FBF0F02B681969484A09
:1010500011422FD1D96802F15C4211422AD119699B
:10106000444A114239D1DA68434B1A4237D0292712
:101070003AE0AB6A43F02003AB62002385F82430EA
:10108000012003B0F0BD2B681B6813F0020F48D19C
:10109000B4F1FF3FF7D024B1FFF7B4FF801BA042AB
:1010A000F1D9AB6A43F00403AB62002385F8243026
:1010B0000320E6E719692F4A114204D1D96802F1E9
:1010C0006E4211420DD019692C4A0A405AB9DA68A9
:1010D0002A4B13405BB1FC2706E0292704E01427C4
:1010E00002E0542700E0FC2707FB00F704E0542748
:1010F000FAE7019B01330193019BBB4211D2B4F18A
:10110000FF3FF6D024B1FFF77DFF801BA042F0D94E
:10111000AB6A43F00403AB62002385F8243003205C
:10112000AFE72B686FF012021A60AB6A43F40073EA
:10113000AB622B689B6803F46023B3F5602F01D08A
:1011400000209EE7EB686BB9AB6A23F48073AB6257
:10115000AB6A13F4805F07D1AB6A43F00103AB6263
:1011600000208EE700208CE700208AE72000002086
:10117000244992249224491292244900499224003D
:101180000368D86C7047000030B482B0002301932C
:1011900090F82430012B00F08B800246012380F868
:1011A00024304B68062B29D80568686B03EB830352
:1011B000053B1F249C4020EA04000C6804FA03F35A
:1011C00003436B630B68092B38D91568E86803EB98
:1011D00043031E3B07249C4020EA04008C6804FA69
:1011E00003F30343EB600B68103B012B34D9002061
:1011F000002382F8243002B030BC70470C2B0ED88C
:101200000568286B03EB8303233B1F249C4020EAE3
:1012100004000C6804FA03F303432B63D2E7056868
:10122000E86A03EB8303413B1F249C4020EA04004F
:101230000C6804FA03F30343EB62C3E715682869FB
:1012400003EB430307249C4020EA04008C6804FA63
:1012500003F303432B61C6E713681648834205D0A6
:10126000936A43F0200393620120C1E7986810F469
:10127000000F1BD1986840F4000098600B68102B99
:1012800001D00020B4E70C4B1B680C49A1FB0313F1
:101290009B0C03EB83035900019102E0019B013B8E
:1012A0000193019B002BF9D10020A1E700209FE7CB
:1012B0000220A0E7002401402000002083DE1B4321
:1012C00030B583B00023019303689A6812F0010FD0
:1012D0002ED19A6842F001029A60174B1B68174A98
:1012E000A2FB03239B0C019302E0019B013B0193B2
:1012F000019B002BF9D10446FFF784FE05462368C5
:101300009B6813F0010F11D1FFF77CFE401B0228F0
:10131000F5D9A36A43F01003A362E36A43F0010323
:10132000E362002384F82430012002E0002000E082
:10133000002003B030BD00BF2000002083DE1B432F
:1013400090F82430012B6AD010B50446012380F8B0
:101350002430FFF7B5FF024600285BD1A36A23F4CF
:10136000407323F0010343F48073A36223682D4983
:101370008B4227D0A16A21F48011A162596811F42F
:10138000806F05D0A16A21F4405141F48051A162DF
:10139000A16A11F4805F2BD0E16A21F00601E162BD
:1013A000002184F824106FF0020119602368996805
:1013B00001F46021B1F5602F1DD0996841F48011CE
:1013C00099602AE0A1F58061496811F4702FD1D0AD
:1013D000A16A41F48011A1621349496811F4806F38
:1013E000D6D0A16A21F4405141F48051A162CFE7E7
:1013F0000021E162D4E70B498B4204D0996841F4A3
:10140000A001996009E0A1F58061496811F4702F8D
:10141000D3D1F3E7002384F82430104610BD022214
:1014200010467047002801400024014038B5036889
:101430009A6812F0010F01D1002038BD04469A6865
:1014400022F001029A60FFF7DDFD054623689B68E4
:1014500013F0010F0ED0FFF7D5FD401B0228F5D980
:10146000A36A43F01003A362E36A43F00103E3625B
:101470000120E2E70020E0E700287FD038B50446ED
:10148000836A002B33D02046FFF7D0FFA36A13F006
:1014900010036DD100286BD1A26A22F4885222F089
:1014A000020242F00202A2626268E1690A43E56850
:1014B00042EA4502A168B1F5807F21D001291CD004
:1014C000616901291FD02568696821F469410B43CE
:1014D0006B6021688D682A4B2B4013438B60A36897
:1014E000B3F5807F20D0012B1ED000211FE0C36206
:1014F00080F8243001F0B0FFC5E74FF48073DFE7D8
:101500004FF48073DCE735B9A169013943EA41330F
:1015100043F40063D7E7A16A41F02001A162E16AC8
:1015200041F00101E162CEE72369013B190525681D
:10153000EB6A23F470030B43EB6223689968114B49
:101540000B409A420BD0A36A23F0120343F010031E
:10155000A362E36A43F00103E36201200DE000238C
:10156000E362A36A23F0030343F00103A36204E0F0
:10157000A36A43F01003A362012038BD0120704725
:10158000FDF7E1FFFE0E1FFF90F82430012B15D070
:1015900010B50446012380F82430FFF747FF0246C8
:1015A00038B9A36A23F4885323F0010343F00103FD
:1015B000A362002384F82430104610BD0222104696
:1015C0007047000070B582B00023019390F824307A
:1015D000012B68D00446012380F82430FFF726FF52
:1015E000054628B1002384F82430284602B070BD97
:1015F000A36A23F4885323F0020343F00203A36297
:101600002A4B1E68022000F071FDB6FBF0F040008E
:10161000019002E0019B013B0193019B002BF9D15A
:101620002046FFF74DFE2268936843F0080393605D
:10163000FFF7E8FC064623689A6812F0080F0FD0FF
:10164000FFF7E0FC801B0A28F5D9A36A23F01203F8
:1016500043F01003A362002384F824300125C4E77B
:101660009A6842F004029A60FFF7CCFC06462368B1
:101670009B6813F0040F0FD0FFF7C4FC801B0A28EF
:10168000F5D9A36A23F0120343F01003A3620023E9
:1016900084F824300125A8E7A36A23F0030343F06C
:1016A0000103A3629EE702259FE700BF2000002000
:1016B000074AD36823F4E0631B041B0C000200F408
:1016C000E060184340F0BF6040F40030D0607047E5
:1016D00000ED00E030B4174BDB68C3F30223C3F125
:1016E0000704042C28BF04241D1D062D18D9033B14
:1016F0004FF0FF3505FA04F421EA0401994005FA98
:1017000003F322EA0303194300280BDB0901C9B2E2
:1017100000F1604000F5614080F8001330BC704774
:101720000023E5E700F00F000901C9B2024B19548C
:10173000F4E700BF00ED00E014ED00E000F01F0250
:10174000400901239340024A42F82030704700BF0D
:1017500000E100E00138B0F1807F0AD2064B58600A
:10176000064AF02182F823100020986007221A60B0
:1017700070470120704700BF10E000E000ED00E07E
:10178000704708B5FFF7FCFF08BD0000F0B482B059
:1017900000263546A1E0002C59D0012C00D1CE689E
:1017A000FF2B68D88446FF2B68D8AC00DCF80020FB
:1017B0000F27A74022EA070206FA04F42243CCF8D6
:1017C00000204A6812F0805F00F086805E4A9469CB
:1017D00044F001049461926902F001020192019ABD
:1017E000AC08A71C594A52F8272005F00307BF0090
:1017F0004FF00F0C0CFA07FC22EA0C0C544A9042F2
:1018000042D002F5806290427FD002F58062904221
:101810007DD002F58062904234D0042235E04D4FF5
:10182000BC4214D00BD94C4FBC4210D007F58037C6
:10183000BC420CD0A7F58017BC42B1D107E0A7F598
:101840008017BC4203D007F58037BC42A8D18C6812
:101850007CB1012C08D042610826A1E7CE68083689
:101860009EE7CE680C369BE70261082698E70026C3
:1018700096E7042694E700F1040C94E7A5F1080428
:10188000A40093E7032200E00022BA4042EA0C02DF
:1018900002342E4F47F824204A6812F4803F38D093
:1018A0002E4C22681A4322604A6812F4003F36D058
:1018B0002A4C62681A4362604A6812F4801F34D06E
:1018C000264CA2681A43A2604A6812F4001F32D064
:1018D000224CE2681343E36001350F2D31D8012219
:1018E000AA400B6813409A42F6D14C68122CB8D02B
:1018F00095D8022CB2D07FF64EAF032CB7D0112C66
:101900007FF44EAFCE6804364AE70122BDE70222DB
:10191000BBE7124C226822EA03022260C4E70F4CA4
:10192000626822EA03026260C6E70C4CA26822EAFF
:101930000302A260C8E7094CE26822EA0303E360FD
:10194000CAE702B0F0BC704700100240000001403E
:101950000008014000002110000031100004014087
:1019600012B90904016170470161704782B0084BE8
:101970001B68084AA2FB03235B0A00FB03F00190EB
:1019800000BF019B5A1E0192002BF9D102B0704793
:1019900020000020D34D621070B582B00446036869
:1019A00013F0010F2CD0AB4B5B6803F00C03042B3E
:1019B0001DD0A84B5B6803F00C03082B12D06368A2
:1019C000B3F5803F41D0002B55D103F1804303F59F
:1019D00004331A6822F480321A601A6822F48022D2
:1019E0001A6037E09B4B5B6813F4803FE7D0994B5C
:1019F0001B6813F4003F03D06368002B00F0AE8136
:101A0000236813F0020F76D0924B5B6813F00C0F33
:101A10005FD0904B5B6803F00C03082B54D0236914
:101A2000002B00F08A808C4B01221A60FFF7EAFA43
:101A30000546884B1B6813F0020F75D1FFF7E2FAD9
:101A4000401B0228F5D903208BE1824A136843F436
:101A500080331360636843B3FFF7D4FA05467D4BC8
:101A60001B6813F4003FCBD1FFF7CCFA401B64286E
:101A7000F5D9032075E1B3F5A02F09D0754B1A688D
:101A800022F480321A601A6822F480221A60E1E798
:101A900003F18043A3F53C331A6842F480221A60B4
:101AA0001A6842F480321A60D4E7FFF7ABFA0546B1
:101AB000684B1B6813F4003FA2D0FFF7A3FA401B4A
:101AC0006428F5D903204CE1624B5B6813F4803F36
:101AD000A5D1604B1B6813F0020F04D02369012BC2
:101AE00001D001203DE15B4A136823F0F8036169EE
:101AF00043EAC1031360236813F0080F32D0A369CF
:101B0000002B5BD0554B01221A60FFF77BFA05468C
:101B1000504B5B6A13F0020F21D1FFF773FA401BA1
:101B20000228F5D903201CE14A4A136823F0F80380
:101B3000616943EAC1031360DDE7474B00221A6085
:101B4000FFF760FA0546434B1B6813F0020FD2D033
:101B5000FFF758FA401B0228F5D9032001E10120C4
:101B6000FFF704FF236813F0040F00F09780394B50
:101B7000DB6913F0805F33D1364BDA6942F0805273
:101B8000DA61DB6903F080530193019B0125344B3B
:101B90001B6813F4807F25D0E368012B36D0002B1F
:101BA0004CD103F1804303F504331A6A22F0010299
:101BB0001A621A6A22F004021A622CE0274B0022F1
:101BC0001A60FFF71FFA0546224B5B6A13F0020FFB
:101BD000C8D0FFF717FA401B0228F5D90320C0E050
:101BE0000025D4E71E4A136843F480731360FFF79F
:101BF00009FA06461A4B1B6813F4807FCCD1FFF715
:101C000001FA801B6428F5D90320AAE0114A136A5F
:101C100043F001031362E36873B3FFF7F3F9064679
:101C20000C4B1B6A13F0020F37D1FFF7EBF9801B47
:101C300041F288339842F3D9032092E0052B11D06A
:101C4000044B1A6A22F001021A621A6A22F0040294
:101C50001A62E0E700100240000042428004424263
:101C600000700040414B1A6A42F004021A621A6A7C
:101C700042F001021A62CEE7FFF7C4F906463B4B79
:101C80001B6A13F0020F08D0FFF7BCF9801B41F26A
:101C900088339842F3D9032063E0E5B9E369002B68
:101CA0005ED0324A526802F00C02082A5BD0022B46
:101CB00017D02F4B00221A60FFF7A4F904462B4BD4
:101CC0001B6813F0007F47D0FFF79CF9001B022828
:101CD000F5D9032045E0254AD36923F08053D36129
:101CE000DCE7234B00221A60FFF78CF905461F4BF7
:101CF0001B6813F0007F06D0FFF784F9401B022811
:101D0000F5D903202DE0236AB3F5803F1AD0174997
:101D10004B6823F47413226A606A024313434B60D6
:101D2000134B01221A60FFF76DF904460F4B1B6835
:101D300013F0007F0ED1FFF765F9001B0228F5D9DB
:101D400003200EE0094A536823F40033A1680B43D3
:101D50005360DCE7002004E0002002E0012000E006
:101D6000002002B070BD0120FBE700BF0010024060
:101D70006000424210B487B0184C94E80F000DF197
:101D8000180C0CE90F00238AADF80430144B5B6883
:101D900003F00C02042A03D0082A05D0114800E001
:101DA000114807B010BC7047C3F3834206A90A4428
:101DB00012F8102C13F4803F0CD0094B5B68C3F36E
:101DC00040430B4413F8143C074800FB02F0B0FBFF
:101DD000F3F0E6E7054800FB02F0E2E7B837000859
:101DE0000010024000127A00809FD50000093D00DB
:101DF000624B1B6803F007038B420CD25F4A1368E7
:101E000023F007030B431360136803F007038B42AF
:101E100001D00120704770B5036813F0020F17D08E
:101E200013F0040F04D0564A536843F4E063536040
:101E3000036813F0080F04D0514A536843F4605309
:101E400053604F4A536823F0F00384682343536080
:101E50000D460446036813F0010F52D04368012B6E
:101E600023D0022B28D0464A126812F0020F00F04D
:101E7000828043494A6822F0030213434B60FFF714
:101E8000C1F806466368012B1DD0022B2AD03C4BBB
:101E90005B6813F00C0F34D0FFF7B4F8801B41F2ED
:101EA00088339842F3D9032064E0354A126812F46B
:101EB000003FDED101205DE0314A126812F0007F60
:101EC000D7D1012056E02E4B5B6803F00C03042BA6
:101ED00017D0FFF797F8801B41F288339842F2D968
:101EE000032047E0264B5B6803F00C03082B08D067
:101EF000FFF788F8801B41F288339842F2D903201B
:101F000038E01E4B1B6803F00703AB420CD91B4A99
:101F1000136823F007032B431360136803F00703D0
:101F2000AB4201D0012025E0236813F0040F06D056
:101F3000134A536823F4E063E1680B43536023685A
:101F400013F0080F07D00E4A536823F46053216939
:101F500043EAC1035360FFF70DFF094B5B68C3F30E
:101F60000313084AD35CD840074B18600020FFF7E2
:101F700007F8002070BD0120FCE700BF00200240F0
:101F800000100240E037000820000020014B1868D4
:101F9000704700BF2000002008B5FFF7F7FF044B93
:101FA0005B68C3F30223034AD35CD84008BD00BF7B
:101FB00000100240F037000808B5FFF7E7FF044BB8
:101FC0005B68C3F3C223034AD35CD84008BD00BF9B
:101FD00000100240F037000870B582B00446036874
:101FE00013F0010F34D03E4BDB6913F0805F48D112
:101FF0003B4BDA6942F08052DA61DB6903F08053CF
:102000000193019B0125374B1B6813F4807F3AD065
:10201000334B1B6A13F4407311D0626802F44072B0
:102020009A420CD02E4A136A23F440702E4901269E
:102030000E6000260E60106213F0010F37D1284A9F
:10204000136A23F4407361680B431362002D3FD180
:10205000236813F0020F06D0214A536823F440434B
:10206000A1680B435360236813F0100F35D01C4A4E
:10207000536823F48003E1680B435360002002B0EF
:1020800070BD0025BFE7174A136843F480731360DF
:10209000FEF7B8FF0646134B1B6813F4807FB7D1D9
:1020A000FEF7B0FF801B6428F5D90320E7E7FEF7B1
:1020B000A9FF06460A4B1B6A13F0020FBFD1FEF7B9
:1020C000A1FF801B41F288339842F3D90320D6E761
:1020D000D36923F08053D361BAE70020CFE700BF74
:1020E00000100240007000404004424230B587B00A
:1020F0000546384C94E80F000DF1180C0CE90F0060
:10210000238AADF80430022D50D0102D03D0012DBC
:102110002BD0002054E0304B5A681B6813F0807FAE
:1021200050D0C2F3834306A90B4413F8100C12F4E9
:10213000803F16D0284B5B68C3F340430B4413F831
:10214000142C264BB3FBF2F300FB03F0224B5B682D
:1021500013F4800F34D14000214BA3FB0030400822
:102160002EE0204B03FB00F0F0E71B4B1B6A40F214
:1021700002321A40B2F5817F26D003F44073B3F5E2
:10218000007F04D0B3F5407F09D0002018E0124A48
:10219000526A12F0020FF5D049F6404010E00E4BA3
:1021A0001B6813F4003F12D1002009E0FFF704FF81
:1021B000094B5B68C3F3813301335B00B0FBF3F081
:1021C00007B030BD0020FBE74FF40040F8E70648B9
:1021D000F6E700BFCC37000800100240809FD50012
:1021E000ABAAAAAA00093D003FAB010070B4036A84
:1021F00023F001030362036A4268846924F07304D4
:102200000D6845EA040623F002048B6823430D4D54
:10221000A84209D00B4DA8420DD0426086614A68A1
:102220004263036270BC704723F00803CC68234309
:1022300023F00403EEE722F440724C6914438A69E8
:102240002243EAE7002C014030B4036A23F4807390
:102250000362036A4268C46924F073040D682C4366
:1022600023F400738D6843EA05230F4DA84209D07B
:102270000D4DA8420ED04260C4614A68C263036239
:1022800030BC704723F40063CD6843EA052323F490
:102290008063EDE722F440524D6942EA05128D69F0
:1022A00042EA0512E7E700BF002C014030B4036AA0
:1022B00023F480530362036A4468C26922F4E6424D
:1022C0000D6842EA052223F400538D6843EA053382
:1022D000074DA84206D04460C2614A6802640362A6
:1022E00030BC704724F480444D6944EA8514F2E719
:1022F000002C014010B4036A046A24F00104046253
:10230000846924F0F00444EA021223F00A030B4328
:102310008261036210BC704710B4036A23F010039B
:1023200003628469036A24F4704444EA023223F0AD
:10233000A00343EA01138261036210BC7047836803
:1023400023F0700341F0070119438160704710B416
:10235000846824F47F4442EA03230B4323438360CD
:1023600010BC7047022380F83D300268136843F0C8
:1023700001031360012380F83D300020704702689C
:10238000D36843F00103D3600268136843F001038C
:10239000136000207047704790F83C30012B7DD0CF
:1023A00010B50446012380F83C30022380F83D300C
:1023B0000268936823F47F4323F0770393600B68EC
:1023C000402B57D010D9702B3ED01FD8502B47D060
:1023D000602B32D1CA6849680068FFF79DFF602111
:1023E0002068FFF7ACFF28E0102B4DD008D9202B38
:1023F0004FD0302B21D130210068FFF7A0FF1CE027
:10240000DBB900210068FFF79AFF16E0B3F5805FA3
:102410000ED0B3F5005F10D1CB684A6889680068B8
:10242000FFF795FF2268936843F48043936004E0CC
:102430000268936823F007039360012384F83D301A
:10244000002084F83C0010BDCB684A6889680068A9
:10245000FFF77DFF2268936843F077039360ECE712
:10246000CA6849680068FFF745FF50212068FFF7F8
:1024700066FFE2E7CA6849680068FFF73BFF402152
:102480002068FFF75CFFD8E710210068FFF757FFCF
:10249000D3E720210068FFF752FFCEE70220704704
:1024A000704770477047704710B5044603681A6953
:1024B00012F0020F11D0DA6812F0020F0DD06FF097
:1024C00002021A610123037703689B6913F0030F6B
:1024D00070D0FFF7E6FF0023237723681A6912F014
:1024E000040F12D0DA6812F0040F0ED06FF004025D
:1024F0001A610223237723689B6913F4407F5FD01E
:102500002046FFF7CEFF0023237723681A6912F0D5
:10251000080F12D0DA6812F0080F0ED06FF0080220
:102520001A61042323772368DB6913F0030F4ED06D
:102530002046FFF7B6FF0023237723681A6912F0BD
:10254000100F12D0DA6812F0100F0ED06FF01002D8
:102550001A61082323772368DB6913F4407F3DD099
:102560002046FFF79EFF0023237723681A6912F0A5
:10257000010F03D0DA6812F0010F36D123681A690F
:1025800012F0800F03D0DA6812F0800F34D1236884
:102590001A6912F0400F03D0DA6812F0400F32D1FE
:1025A00023681A6912F0200F03D0DA6812F0200FA6
:1025B00030D110BDFFF774FF2046FFF773FF8AE7A5
:1025C0002046FFF76DFF2046FFF76CFF9BE7204694
:1025D000FFF766FF2046FFF765FFACE72046FFF7F1
:1025E0005FFF2046FFF75EFFBDE76FF001021A6153
:1025F000204600F081FEC1E76FF080021A6120469C
:1026000000F08CF9C3E76FF040021A612046FFF733
:102610004AFFC5E76FF020021A61204600F07DF9FD
:10262000C7E7000003681B4A90420AD0B0F1804F10
:1026300007D0A2F59432904203D002F58062904216
:1026400003D123F070034A681343124A90420AD020
:10265000B0F1804F07D0A2F59432904203D002F53A
:102660008062904203D123F44073CA68134323F07D
:1026700080034A69134303608B68C3620B688362FB
:10268000044B984202D00123436170470B690363F6
:10269000F9E700BF002C0140A8B110B5044690F83E
:1026A0003D305BB1022384F83D30211D2068FFF7E7
:1026B000B9FF012384F83D30002010BD80F83C3084
:1026C00000F0FAFEEEE701207047A8B110B504460D
:1026D00090F83D305BB1022384F83D30211D206825
:1026E000FFF7A0FF012384F83D30002010BD80F8E3
:1026F0003C30FFF750FEEEE70120704730B4036A2C
:1027000023F010030362036A4468826922F4E642FC
:102710000D6842EA052223F020038D6843EA051381
:102720000E4DA84209D00D4DA8420ED044608261E2
:102730004A688263036230BC704723F08003CD682F
:1027400043EA051323F04003EDE724F440644D69A8
:1027500044EA85048D6944EA8504E7E7002C0140DA
:1027600038B590F83C30012B66D00D460446012365
:1027700080F83C30022380F83D300C2A1AD8DFE87C
:1027800002F00719191920191919341919194700D4
:102790000068FFF72BFD2268936943F008039361FB
:1027A0002268936923F0040393612268936929697D
:1027B0000B439361012384F83D30002084F83C00F2
:1027C00038BD0068FFF79AFF2268936943F40063FD
:1027D00093612268936923F480639361226893690B
:1027E000296943EA01239361E4E70068FFF72CFDC0
:1027F0002268D36943F00803D3612268D36923F0C8
:102800000403D3612268D36929690B43D361D1E7FB
:102810000068FFF74BFD2268D36943F40063D3617E
:102820002268D36923F48063D3612268D36929695C
:1028300043EA0123D361BDE70220C1E710B40123BD
:1028400003FA01F4036A23EA04030362036A8A4079
:102850001343036210BC704710B5044601220068A0
:10286000FFF7ECFF2368074A934206D022681368FB
:1028700043F001031360002010BD5A6C42F4004283
:102880005A64F3E7002C014010B4042303FA01F466
:10289000036A23EA04030362036A8A401343036260
:1028A00010BC704710B5044604220068FFF7ECFF27
:1028B0002268536C43F4004353642268136843F066
:1028C00001031360002010BD90F83C30012B22D092
:1028D00030B4012280F83C20022380F83D300468A7
:1028E000636823F070036360046863680D682B43BA
:1028F00063600468A36823F08003A3600468A3688E
:1029000049680B43A36080F83D20002380F83C30E9
:10291000184630BC7047022070477047704700006F
:102920002DE9F84305460268136923F44053C16852
:102930000B431361836802691343426913430168BF
:10294000CA6822F4B05222F00C021343CB60026832
:10295000536923F4407381690B4353610268594BF7
:102960009A4257D0FFF718FB00EB800000EB800085
:102970006C68A400B0FBF4F4534FA7FB0434640963
:102980002601FFF709FB00EB800000EB80006C687C
:10299000A400B0FBF4F9FFF7FFFA00EB800000EBB6
:1029A00080006C68A400B0FBF4F4A7FB0434640955
:1029B0004FF0640808FB149424013234A7FB04345C
:1029C000640904F0F0043444FFF7E6FA00EB8000F9
:1029D00000EB80006E68B600B0FBF6F6FFF7DCFA9D
:1029E00000EB800000EB80006B689B00B0FBF3F015
:1029F000A7FB0030400908FB10684FEA081808F1EF
:102A00003208A7FB0837C7F343172B6827449F609A
:102A1000BDE8F883FFF7D0FA00EB800000EB800000
:102A20006C68A400B0FBF4F4274FA7FB04346409DE
:102A30002601FFF7C1FA00EB800000EB80006C6814
:102A4000A400B0FBF4F9FFF7B7FA00EB800000EB4D
:102A500080006C68A400B0FBF4F4A7FB04346409A4
:102A60004FF0640808FB149424013234A7FB0434AB
:102A7000640904F0F0043444FFF79EFA00EB800090
:102A800000EB80006E68B600B0FBF6F6FFF794FA34
:102A900000EB800000EB80006B689B00B0FBF3F064
:102AA000A7FB0030400908FB10684FEA081808F13E
:102AB0003208A7FB0837C7F343172B6827449F60EA
:102AC000A6E700BF003801401F85EB512DE9F0411A
:102AD00005460F4616469846069C2B681B6837EA43
:102AE00003030CBF01230023B3421DD1B4F1FF3F08
:102AF000F3D02CB1FEF786FAA0EB0800A042ECD987
:102B00002A68D36823F4D073D3602A68536923F00A
:102B100001035361202385F8393085F83A300023CA
:102B200085F83830032000E00020BDE8F08158B37C
:102B300010B5044690F839300BB3242384F83930AB
:102B40002268D36823F40053D3602046FFF7E8FEE1
:102B50002268136923F4904313612268536923F0B8
:102B60002A0353612268D36843F40053D3600020E2
:102B7000E063202384F8393084F83A3010BD80F8BF
:102B8000383000F02BFDD8E7012070472DE9F041E7
:102B900082B01E4690F83930DBB2202B55D1044666
:102BA0000D469046002955D0002A55D090F838306F
:102BB000012B53D0012380F838300023C363212335
:102BC00080F83930FEF71EFA0746A4F82480A4F8EE
:102BD000268010E000963B46002280212046FFF729
:102BE00075FF00283CD12B882268C3F3080353608B
:102BF0002369C3B90235E38C9BB2B3B1E38C013BCB
:102C00009BB2E384A368B3F5805FE3D000963B46B4
:102C1000002280212046FFF759FF18BB2A7823683D
:102C20005A600135E7E70135E5E700963B460022AB
:102C300040212046FFF74AFF0346A8B9202284F826
:102C40003920002284F8382000E00223184602B020
:102C5000BDE8F0810123F9E70123F7E70223F5E757
:102C60000323F3E70323F1E70323EFE708B508485D
:102C7000084B03604FF4E133436000238360C3607B
:102C80000361082242618361C361FFF750FF08BD01
:102C9000880100200038014070B586B000240294FD
:102CA000039404940594214B9A6942F004029A61BA
:102CB0009A6902F004020092009A9A6942F00802AE
:102CC0009A619B6903F008030193019B184D22460A
:102CD00040F202412846FEF743FE01224FF47041C4
:102CE0002846FEF73DFE40F202430293012603967A
:102CF00004940224059402A92846FEF747FD4FF4E8
:102D00003043029303960494059402A92846FEF7E3
:102D10003DFD4FF48043029303960496059402A967
:102D20002846FEF733FD06B070BD00BF001002401C
:102D3000000C014030B587B0002402940394049441
:102D4000059400940194104D4FF080432B6041F6A0
:102D5000FF036B60AC6040F2E733EB602C618023D3
:102D6000AB612846FFF798FC4FF48053029302A909
:102D70002846FFF711FB0094019469462846FFF7A7
:102D8000A3FD07B030BD00BF0802002030B587B0FA
:102D900000240294039404940594009401940F4D2C
:102DA0000F4B2B6063236B60AC604FF6FF13EB603F
:102DB0002C616C618023AB612846FFF76DFC4FF4FA
:102DC0008053029302A92846FFF7E6FA0094019483
:102DD00069462846FFF778FD07B030BDC8010020DE
:102DE000002C014030B587B0002402940394049471
:102DF0000594009401940F4D0F4B2B6041F6FF0397
:102E00006B60AC600923EB602C618023AB612846CA
:102E1000FFF742FC4FF48053029302A92846FFF7C4
:102E2000BBFA0094019469462846FFF74DFD07B0B0
:102E300030BD00BFA40000200008004030B58FB0B6
:102E400000240A940B940C940D9408940994019412
:102E5000029403940494059406940794164D174B1A
:102E60002B606C60AC6040F23D43EB602C618023D2
:102E7000AB612846FFF710FC4FF480530A930AA970
:102E80002846FFF789FA2846FFF71FFC08940994A3
:102E900008A92846FFF718FD6023019302940394C4
:102EA0000594224601A92846FFF75AFC284600F05F
:102EB00063FB0FB030BD00BFE40000200004004001
:102EC00070B584B000250195029503950B4C0C4B11
:102ED0002360A560E56065614FF46023E361656090
:102EE000012626612046FEF7C7FA01960296039551
:102EF00001A92046FEF748F904B070BD5801002032
:102F00000024014030B595B0202200210BA800F02C
:102F10003FFC0024059406940794089409940194B6
:102F200002940394049402250A9501230E9310231E
:102F30000F9311954FF4601313930AA8FEF72CFD1D
:102F40000F230593069507944FF480630893099423
:102F5000294605A8FEF74CFF01954FF40043039363
:102F600001A8FFF739F815B030BD000008B5FEF72D
:102F70002BF8FFF7C7FFFFF78FFEFFF75FFFFFF7A5
:102F80009FFFFFF7D7FEFFF701FFFFF72BFFFFF7CC
:102F90006DFE1E4C2046FFF7E5F900212046FFF7A5
:102FA0005BFC00212046FFF77DFC1948FFF7E7F99D
:102FB000002211461C20FEF78DFB1C20FEF7BEFBF5
:102FC0001448FFF7DCF9002211461E20FEF782FBB1
:102FD0001E20FEF7B3FB1048FFF7D1F90F48FFF7AB
:102FE000A6FD002211461920FEF774FB1920FEF7FA
:102FF000A5FB0B490B4B186808609B888B806423EA
:1030000032220648FFF7C2FDF3E700BFE4000020CC
:1030100008020020A4000020C80100208801002030
:1030200024010020F837000838B5174B5A681A6099
:103030005860DA689A60154A1168401AD860546876
:1030400004FB00F41C6100F1C703B3F5C77F04D88B
:10305000052802DD10F1050F11DB0B4B00225A6130
:10306000094D6869FDF74CFD084B9968FDF79CFD1B
:10307000FDF760FFA8610023EB61204438BD024AE0
:10308000536918445061EBE740000020080000201D
:1030900010B5012807D060B94A4B1B6ABBB9494B30
:1030A00007221A6205E0474A136A01331362082BAC
:1030B00009D0444B1B6A072B7DD8DFE803F00C1ABC
:1030C00028364452606E134600221A62F1E7013B33
:1030D0003C4A1362EDE73C4C00224FF4204120466D
:1030E000FEF73EFC01224FF4A0412046FEF738FCDB
:1030F00010BD354C00224FF430412046FEF730FC25
:1031000001224FF480412046FEF72AFCF0E72E4CC6
:1031100000224FF410412046FEF722FC01224FF41A
:10312000C0412046FEF71CFCE2E7274C00224FF48A
:1031300050412046FEF714FC01224FF40051204676
:10314000FEF70EFCD4E7204C00224FF4A0412046AD
:10315000FEF706FC01224FF420412046FEF700FC5A
:10316000C6E7194C00224FF4E0412046FEF7F8FB79
:1031700001224FF400412046FEF7F2FBB8E7124C63
:1031800000224FF4C0412046FEF7EAFB01224FF433
:1031900010412046FEF7E4FBAAE70B4C00224FF457
:1031A00060412046FEF7DCFB01224FF480512046AF
:1031B000FEF7D6FB9CE700224FF470410248FEF771
:1031C000CFFB95E740000020000C014010B5154CE6
:1031D000606AFFF729FF47F2305393FBF0F0A062DB
:1031E00000F57A73B3F5FA6F0CD800F10D031A2BC2
:1031F0000BD900280DDD0B4B0122DA620A4B1B684C
:10320000986201E00222E26210BD064B0222DA62FD
:10321000FAE7044B0022DA6240429862024B1B68D4
:103220009862F1E740000020C8010020064BDB68EF
:103230001844B0F5617F05DC034A1361D060034B8D
:103240001B685863704700BF08000020E40000209E
:1032500008B50B4601461846FDF762FE68B10E4BF5
:10326000DA681B699A4203DD0520FFF7DFFF0CE0F7
:103270006FF00400FFF7DAFF07E0074BDA681B691D
:103280009A4203DC0520FFF7D1FF08BD6FF0040070
:10329000FFF7CCFFF9E700BF0800002000B585B0BC
:1032A0000190062303930123029301A90248FDF72D
:1032B0006BFF05B05DF804FB5801002070B50646B1
:1032C000FFF7ECFF0B4C2046FEF77CF92046FEF79B
:1032D00037F84FF47A712046FDF79AFE2046FDF745
:1032E0004FFF05462046FEF74FF93046FFF7D6FF61
:1032F000284670BD5801002070B5044602683E4B58
:103300009A4208D02368B3F1804F09D022683B4B22
:103310009A420DD070BD3A4BD86AFFF7B9FEF1E77B
:103320000120FFF7CBFF364B5862FFF74FFFEDE769
:103330000720FFF7C3FF324C2063FDF7E1FBFDF7E9
:103340006BF800222F4BFDF7BFF827A3D3E900232A
:10335000FDF7BAF800222C4BFDF7B6F8FDF7C6FAD8
:1033600060630620FFF7AAFFA063FDF7C9FBFDF726
:1033700053F80022234BFDF7A7F81BA3D3E9002342
:10338000FDF7A2F81AA3D3E90023FDF7C7F9FDF76B
:10339000ADFAE063656B2946FDF706FC2064616CBD
:1033A000FDF7FAFA6064A36C0133A364642BB1D116
:1033B0000023A3641549FDF7ABFC064660644FF09B
:1033C00082412846FDF78EFD38B1114B1B680A2259
:1033D0005A630B4B5A6CDA649CE73146084BD86C45
:1033E000FFF736FFF5E700BF6666666666660A4069
:1033F000CDCCCCCCCCCC0E40002C01400008004001
:10340000400000200000303F000014400000C8428F
:10341000E400002082B00E4B9A6942F001029A61EA
:103420009A6902F001020092009ADA6942F0805231
:10343000DA61DB6903F080530193019B054A53680D
:1034400023F0E06343F08063536002B0704700BF35
:10345000001002400000014000B587B00023029335
:103460000393049305930268114B9A4202D007B06C
:103470005DF804FB03F56C439A6942F400729A61AB
:103480009A6902F400720092009A9A6942F004026A
:103490009A619B6903F004030193019BC223029389
:1034A0000323039302A90348FEF770F9DFE700BF87
:1034B000002401400008014000B585B003682A4A95
:1034C00093420BD0B3F1804F1BD0284A93422CD0AB
:1034D000274A934234D005B05DF804FB254B9A6926
:1034E00042F400629A619B6903F400630093009BBD
:1034F000002211461920FEF7EDF81920FEF71EF9FB
:10350000E9E703F50433DA6942F00102DA61DB69C5
:1035100003F001030193019B002211461C20FEF7DA
:10352000D9F81C20FEF70AF9D5E7124BDA6942F008
:103530000202DA61DB6903F002030293029BCAE72D
:103540000C4BDA6942F00402DA61DB6903F0040330
:103550000393039B002211461E20FEF7BBF81E209A
:10356000FEF7ECF8B7E700BF002C01400004004074
:10357000000800400010024000B587B0002302930D
:103580000393049305930268114B9A4202D007B04B
:103590005DF804FB03F503339A6942F008029A616F
:1035A0009B6903F008030193019B102302930223FC
:1035B0000393059302A90748FEF7E8F8064A536803
:1035C00023F4406343F0E06343F400635360DEE7B9
:1035D00000040040000C01400000014010B586B01E
:1035E0000023029303930493059302681A4B9A42B3
:1035F00001D006B010BD03F558439A6942F48042E9
:103600009A619A6902F480420092009A9A6942F0A3
:1036100008029A619B6903F008030193019B402310
:10362000029302230393032305930C4C02A9204623
:10363000FEF7ACF88023029300230393049302A9BE
:103640002046FEF7A3F8064A536843F0E06343F0D0
:1036500004035360CDE700BF00380140000C014077
:10366000000001407047FEE7FEE7FEE7FEE7704717
:103670007047704708B5FDF7B9FCFEF782F808BD42
:1036800008B50248FEF710FF08BD00BFC8010020C2
:1036900008B50248FEF708FF08BD00BF0802002079
:1036A00008B50248FEF700FF08BD00BFA4000020D7
:1036B0000F4B1A6842F001021A6059680D4A0A401D
:1036C0005A601A6822F0847222F480321A601A68F2
:1036D00022F480221A605A6822F4FE025A604FF4E3
:1036E0001F029A60044B4FF000629A60704700BF5F
:1036F000001002400000FFF800ED00E0002103E0B0
:103700000B4B5B58435004310A480B4B42189A420A
:10371000F6D30A4A02E0002342F8043B084B9A42DF
:10372000F9D3FFF7C5FF00F00FF8FFF71FFC704754
:103730000838000800000020240000202400002099
:1037400048020020FEE7000070B500250C4E0D4C2D
:10375000A41BA410A54209D100F022F800250A4EAE
:103760000A4CA41BA410A54205D170BD56F8253003
:1037700098470135EEE756F8253098470135F2E7CE
:103780000038000800380008003800080438000835
:1037900003460244934200D1704703F8011BF9E746
:1037A000F8B500BFF8BC08BC9E467047F8B500BF2E
:0837B000F8BC08BC9E467047FE
:1037B80002030405060708090A0B0C0D0E0F10106A
:1037C8000102000002030405060708090A0B0C0D94
:1037D8000E0F1010010200000000000000000000A1
:1037E800010203040607080900000000010203049F
:0837F8006173730D0A0000006B
:043800003501000886
:0438040011010008A6
:103808000100000010000000A406000001000000F4
:10381800CDCC4C3D1502000015020000CDCC4C3D2E
:0438280000A24A04AC
:04000005080036FDBC
:00000001FF
