:020000040800F2
:1000000000500020054000084D3F00084F3F000809
:10001000513F0008533F0008553F00080000000012
:10002000000000000000000000000000573F000832
:10003000593F0008000000005B3F00085D3F0008DA
:100040004D4000084D4000084D4000084D4000085C
:100050004D4000084D4000084D4000084D4000084C
:100060004D4000084D4000084D4000084D4000083C
:100070004D4000084D400008693F00084D40000811
:100080004D4000084D4000084D4000084D4000081C
:100090004D4000084D4000084D4000084D4000080C
:1000A0004D400008793F00084D4000084D400008D1
:1000B000893F00084D400008993F00084D40000866
:1000C0004D4000084D4000084D4000084D400008DC
:1000D0004D400008A93F00084D4000084D40000871
:1000E0004D4000084D4000084D4000080000000051
:1000F0000000000000000000000000000000000000
:0C01000000000000000000005FF808F1A3
:1001100010B5054C237833B9044B13B10448AFF341
:1001200000800123237010BDF801002000000000B2
:100130004061000808B5034B1BB103490348AFF306
:10014000008008BD00000000FC01002040610008A4
:1001500081F0004102E000BF83F0004330B54FEA78
:1001600041044FEA430594EA050F08BF90EA020FE5
:100170001FBF54EA000C55EA020C7FEA645C7FEA78
:10018000655C00F0E2804FEA5454D4EB5555B8BF9B
:100190006D420CDD2C4480EA020281EA030382EA0C
:1001A000000083EA010180EA020281EA0303362D9E
:1001B00088BF30BD11F0004F4FEA01314FF4801C71
:1001C0004CEA113102D0404261EB410113F0004F83
:1001D0004FEA03334CEA133302D0524263EB43033A
:1001E00094EA050F00F0A780A4F10104D5F1200ED8
:1001F0000DDB02FA0EFC22FA05F2801841F1000133
:1002000003FA0EF2801843FA05F359410EE0A5F106
:1002100020050EF1200E012A03FA0EFC28BF4CF037
:10022000020C43FA05F3C01851EBE37101F00045ED
:1002300007D54FF0000EDCF1000C7EEB00006EEBFA
:100240000101B1F5801F1BD3B1F5001F0CD3490884
:100250005FEA30004FEA3C0C04F101044FEA4452DB
:1002600012F5800F80F09A80BCF1004F08BF5FEA62
:10027000500C50F1000041EB045141EA050130BD42
:100280005FEA4C0C404141EB010111F4801FA4F1E5
:100290000104E9D191F0000F04BF01460020B1FA3A
:1002A00081F308BF2033A3F10B03B3F120020CDA72
:1002B0000C3208DD02F1140CC2F10C0201FA0CF050
:1002C00021FA02F10CE002F11402D8BFC2F1200CB5
:1002D00001FA02F120FA0CFCDCBF41EA0C0190406B
:1002E000E41AA2BF01EB0451294330BD6FEA0404B4
:1002F0001F3C1CDA0C340EDC04F11404C4F120029F
:1003000020FA04F001FA02F340EA030021FA04F3B0
:1003100045EA030130BDC4F10C04C4F1200220FA07
:1003200002F001FA04F340EA0300294630BD21FA45
:1003300004F0294630BD94F0000F83F4801306BF0B
:1003400081F480110134013D4EE77FEA645C18BFFF
:100350007FEA655C29D094EA050F08BF90EA020F96
:1003600005D054EA000C04BF1946104630BD91EA8E
:10037000030F1EBF0021002030BD5FEA545C05D191
:100380004000494128BF41F0004130BD14F58004D0
:100390003CBF01F5801130BD01F0004545F0FE4144
:1003A00041F470014FF0000030BD7FEA645C1ABF79
:1003B000194610467FEA655C1CBF0B46024650EAB0
:1003C000013406BF52EA033591EA030F41F40021DC
:1003D00030BD00BF90F0000F04BF0021704730B562
:1003E0004FF4806404F132044FF000054FF0000137
:1003F00050E700BF90F0000F04BF0021704730B5F8
:100400004FF4806404F1320410F0004548BF4042CC
:100410004FF000013EE700BF42004FEAE2014FEA21
:1004200031014FEA02701FBF12F07F4393F07F4FFC
:1004300081F06051704732F07F4208BF704793F0FF
:100440007F4F04BF41F40021704730B54FF4607412
:1004500001F0004521F000411CE700BF50EA010215
:1004600008BF704730B54FF000050AE050EA0102BE
:1004700008BF704730B511F0004502D5404261EB2E
:1004800041014FF4806404F132045FEA915C3FF46F
:10049000D8AE4FF003025FEADC0C18BF03325FEA0C
:1004A000DC0C18BF033202EBDC02C2F1200300FABD
:1004B00003FC20FA02F001FA03FE40EA0E0021FAE2
:1004C00002F11444BDE600BF70B54FF0FF0C4CF4D0
:1004D000E06C1CEA11541DBF1CEA135594EA0C0F82
:1004E00095EA0C0F00F0DEF82C4481EA030621EABD
:1004F0004C5123EA4C5350EA013518BF52EA0335F8
:1005000041F4801143F4801338D0A0FB02CE4FF0A9
:100510000005E1FB02E506F00042E0FB03E54FF0D9
:100520000006E1FB03569CF0000F18BF4EF0010ED1
:10053000A4F1FF04B6F5007F64F5407404D25FEACD
:100540004E0E6D4146EB060642EAC62141EA555180
:100550004FEAC52040EA5E504FEACE2EB4F1FD0CC2
:1005600088BFBCF5E06F1ED8BEF1004F08BF5FEA40
:10057000500E50F1000041EB045170BD06F00046F2
:1005800046EA010140EA020081EA0301B4EB5C049F
:10059000C2BFD4EB0C0541EA045170BD41F4801197
:1005A0004FF0000E013C00F3AB8014F1360FDEBFBC
:1005B000002001F0004170BDC4F10004203C35DA98
:1005C0000C341BDC04F11404C4F1200500FA05F31B
:1005D00020FA04F001FA05F240EA020001F00042BC
:1005E00021F0004110EBD37021FA04F642EB060132
:1005F0005EEA430E08BF20EAD37070BDC4F10C045C
:10060000C4F1200500FA04F320FA05F001FA04F21F
:1006100040EA020001F0004110EBD37041F100010B
:100620005EEA430E08BF20EAD37070BDC4F1200516
:1006300000FA05F24EEA020E20FA04F301FA05F27E
:1006400043EA020321FA04F001F0004121FA04F226
:1006500020EA020000EBD3705EEA430E08BF20EAF6
:10066000D37070BD94F0000F0FD101F00046400030
:1006700041EB010111F4801F08BF013CF7D041EAB2
:10068000060195F0000F18BF704703F000465200B6
:1006900043EB030313F4801F08BF013DF7D043EA87
:1006A0000603704794EA0C0F0CEA135518BF95EA3D
:1006B0000C0F0CD050EA410618BF52EA4306D1D1C4
:1006C00081EA030101F000414FF0000070BD50EAE3
:1006D000410606BF1046194652EA430619D094EA6D
:1006E0000C0F02D150EA013613D195EA0C0F05D157
:1006F00052EA03361CBF104619460AD181EA0301AB
:1007000001F0004141F0FE4141F470014FF0000062
:1007100070BD41F0FE4141F4780170BD70B54FF0FD
:10072000FF0C4CF4E06C1CEA11541DBF1CEA13557D
:1007300094EA0C0F95EA0C0F00F0A7F8A4EB05045F
:1007400081EA030E52EA03354FEA013100F0888056
:100750004FEA03334FF0805545EA131343EA12631F
:100760004FEA022245EA111545EA10654FEA0026D4
:100770000EF000419D4208BF964244F1FD0404F58D
:10078000407402D25B084FEA3202B61A65EB0305E9
:100790005B084FEA32024FF480104FF4002CB6EBA6
:1007A000020E75EB030E22BFB61A754640EA0C0026
:1007B0005B084FEA3202B6EB020E75EB030E22BF66
:1007C000B61A754640EA5C005B084FEA3202B6EBA7
:1007D000020E75EB030E22BFB61A754640EA9C0066
:1007E0005B084FEA3202B6EB020E75EB030E22BF36
:1007F000B61A754640EADC0055EA060E18D04FEAF4
:10080000051545EA16754FEA06164FEAC30343EA93
:1008100052734FEAC2025FEA1C1CC0D111F4801F60
:100820000BD141EA00014FF000004FF0004CB6E759
:1008300011F4801F04BF01430020B4F1FD0C88BFF8
:10084000BCF5E06F3FF6AFAEB5EB030C04BFB6EB03
:10085000020C5FEA500C50F1000041EB045170BDF6
:100860000EF0004E4EEA113114EB5C04C2BFD4EB23
:100870000C0541EA045170BD41F480114FF0000EA7
:10088000013C90E645EA060E8DE60CEA135594EA23
:100890000C0F08BF95EA0C0F3FF43BAF94EA0C0F26
:1008A0000AD150EA01347FF434AF95EA0C0F7FF49B
:1008B00025AF104619462CE795EA0C0F06D152EAEF
:1008C00003353FF4FDAE1046194622E750EA4106D3
:1008D00018BF52EA43067FF4C5AE50EA41047FF4E4
:1008E0000DAF52EA43057FF4EBAE12E74FEA410247
:1008F000B2F1E04324BFB3F5001CDCF1FE5C0DD97E
:1009000001F0004C4FEAC0024CEA5070B2F1004FC7
:1009100040EB830008BF20F00100704711F0804FCA
:1009200021D113F13872BCBF01F00040704741F48F
:1009300080114FEA5252C2F11802C2F1200C10FA93
:100940000CF320FA02F018BF40F001004FEAC12377
:100950004FEAD32303FA0CFC40EA0C0023FA02F31B
:100960004FEA4303CCE77FEA625307D150EA0133F1
:100970001EBF4FF0FE4040F44000704701F00040C1
:1009800040F0FE4040F40000704700BF80F000409F
:1009900002E000BF81F0004142001FBF5FEA410357
:1009A00092EA030F7FEA226C7FEA236C6AD04FEA57
:1009B0001262D2EB1363C1BFD2184140484041409C
:1009C000B8BF5B42192B88BF704710F0004F40F44E
:1009D000000020F07F4018BF404211F0004F41F46A
:1009E000000121F07F4118BF494292EA030F3FD036
:1009F000A2F1010241FA03FC10EB0C00C3F1200349
:100A000001FA03F100F0004302D5494260EB4000D7
:100A1000B0F5000F13D3B0F1807F06D340084FEA42
:100A2000310102F10102FE2A51D2B1F1004F40EB37
:100A3000C25008BF20F0010040EA0300704749009F
:100A400040EB000010F4000FA2F10102EDD1B0FA6A
:100A500080FCACF1080CB2EB0C0200FA0CF0AABF5F
:100A600000EBC25052421843BCBFD04018437047FD
:100A700092F0000F81F4000106BF80F40000013203
:100A8000013BB5E74FEA41037FEA226C18BF7FEADA
:100A9000236C21D092EA030F04D092F0000F08BF1C
:100AA0000846704790EA010F1CBF0020704712F003
:100AB0007F4F04D1400028BF40F00040704712F142
:100AC00000723CBF00F50000704700F0004343F0A7
:100AD000FE4040F4000070477FEA226216BF0846DD
:100AE0007FEA23630146420206BF5FEA412390EAA0
:100AF000010F40F4800070474FF0000304E000BF96
:100B000010F0004348BF40425FEA000C08BF704746
:100B100043F0964301464FF000001CE050EA01020A
:100B200008BF70474FF000030AE000BF50EA01021F
:100B300008BF704711F0004302D5404261EB41010C
:100B40005FEA010C02BF84460146002043F0B64331
:100B500008BFA3F18053A3F50003BCFA8CF2083A56
:100B6000A3EBC25310DB01FA02FC634400FA02FC5F
:100B7000C2F12002BCF1004F20FA02F243EB020066
:100B800008BF20F00100704702F1200201FA02FCC8
:100B9000C2F1200250EA4C0021FA02F243EB0200BB
:100BA00008BF20EADC7070474FF0FF0C1CEAD052FF
:100BB0001EBF1CEAD15392EA0C0F93EA0C0F6FD0C0
:100BC0001A4480EA010C400218BF5FEA41211ED09E
:100BD0004FF0006343EA501043EA5111A0FB01318A
:100BE0000CF00040B1F5000F3EBF490041EAD3715F
:100BF0005B0040EA010062F17F02FD2A1DD8B3F1DB
:100C0000004F40EBC25008BF20F00100704790F049
:100C1000000F0CF0004C08BF49024CEA502040EA9B
:100C200051207F3AC2BFD2F1FF0340EAC250704761
:100C300040F400004FF00003013A5DDC12F1190F9F
:100C4000DCBF00F000407047C2F10002410021FA11
:100C500002F1C2F1200200FA02FC5FEA310040F129
:100C6000000053EA4C0308BF20EADC70704792F0A2
:100C7000000F00F0004C02BF400010F4000F013ADA
:100C8000F9D040EA0C0093F0000F01F0004C02BFD5
:100C9000490011F4000F013BF9D041EA0C018FE744
:100CA0000CEAD15392EA0C0F18BF93EA0C0F0AD04A
:100CB00030F0004C18BF31F0004CD8D180EA010070
:100CC00000F00040704790F0000F17BF90F0004F09
:100CD000084691F0000F91F0004F14D092EA0C0FEB
:100CE00001D142020FD193EA0C0F03D14B0218BF7E
:100CF000084608D180EA010000F0004040F0FE40C4
:100D000040F40000704740F0FE4040F4400070475F
:100D10004FF0FF0C1CEAD0521EBF1CEAD15392EADE
:100D20000C0F93EA0C0F69D0A2EB030280EA010CCE
:100D300049024FEA402037D04FF0805343EA111167
:100D400043EA10130CF000408B4238BF5B0042F1C5
:100D50007D024FF4000C8B4224BF5B1A40EA0C006A
:100D6000B3EB510F24BFA3EB510340EA5C00B3EB9C
:100D7000910F24BFA3EB910340EA9C00B3EBD10F8A
:100D800024BFA3EBD10340EADC001B0118BF5FEADC
:100D90001C1CE0D1FD2A3FF650AF8B4240EBC25005
:100DA00008BF20F0010070470CF0004C4CEA5020C6
:100DB0007F32C2BFD2F1FF0340EAC250704740F415
:100DC00000004FF00003013A37E792F0000F00F007
:100DD000004C02BF400010F4000F013AF9D040EA85
:100DE0000C0093F0000F01F0004C02BF490011F419
:100DF000000F013BF9D041EA0C0195E70CEAD15311
:100E000092EA0C0F08D142027FF47DAF93EA0C0FF7
:100E10007FF470AF084676E793EA0C0F04D14B02DB
:100E20003FF44CAF08466EE730F0004C18BF31F08D
:100E3000004CCAD130F000427FF45CAF31F0004387
:100E40007FF43CAF5FE700BF4FF0FF3C06E000BF20
:100E50004FF0010C02E000BF4FF0010C4DF804CD43
:100E60004FEA40024FEA41037FEA226C18BF7FEA53
:100E7000236C11D001B052EA530C18BF90EA010F55
:100E800058BFB2EB030088BFC81738BF6FEAE170E4
:100E900018BF40F0010070477FEA226C02D15FEA80
:100EA000402C05D17FEA236CE4D15FEA412CE1D0EC
:100EB0005DF8040B704700BF844608466146FFE7B3
:100EC0000FB5FFF7C9FF002848BF10F1000F0FBD95
:100ED0004DF808EDFFF7F4FF0CBF012000205DF88E
:100EE00008FB00BF4DF808EDFFF7EAFF34BF012013
:100EF00000205DF808FB00BF4DF808EDFFF7E0FFAC
:100F000094BF012000205DF808FB00BF4DF808EDFC
:100F1000FFF7D2FF94BF012000205DF808FB00BF5F
:100F20004DF808EDFFF7C8FF34BF012000205DF841
:100F300008FB00BF4FEA4002B2F1FE4F0FD34FF063
:100F40009E03B3EB12620DD94FEA002343F0004336
:100F500010F0004F23FA02F018BF404270474FF0E4
:100F60000000704712F1610F01D1420205D110F06B
:100F7000004008BF6FF0004070474FF0000070471E
:100F8000034613F8012B002AFBD1181A01387047C9
:100F90004FF0FF3C06E000BF4FF0010C02E000BF45
:100FA0004FF0010C4DF804CD4FEA410C7FEA6C5C28
:100FB0004FEA430C18BF7FEA6C5C1BD001B050EACB
:100FC000410C0CBF52EA430C91EA030F02BF90EAB6
:100FD000020F0020704710F1000F91EA030F58BF75
:100FE000994208BF90422CBFD8176FEAE37040F0D7
:100FF000010070474FEA410C7FEA6C5C02D150EA75
:10100000013C07D14FEA430C7FEA6C5CD6D152EA2F
:10101000033CD3D05DF8040B704700BF84461046F4
:1010200062468C461946634600E000BF01B5FFF7F3
:10103000B7FF002848BF10F1000F01BD4DF808EDC3
:10104000FFF7F4FF0CBF012000205DF808FB00BF94
:101050004DF808EDFFF7EAFF34BF012000205DF8EE
:1010600008FB00BF4DF808EDFFF7E0FF94BF01203B
:1010700000205DF808FB00BF4DF808EDFFF7CEFF3C
:1010800094BF012000205DF808FB00BF4DF808ED7B
:10109000FFF7C4FF34BF012000205DF808FB00BF4C
:1010A0004FEA410C7FEA6C5C02D150EA013C0AD164
:1010B0004FEA430C7FEA6C5C02D152EA033C02D156
:1010C0004FF0000070474FF0010070474FEA4102B7
:1010D00012F5001215D211D56FF47873B3EB62528A
:1010E00012D94FEAC12343F0004343EA505311F0B1
:1010F000004F23FA02F018BF404270474FF0000043
:10110000704750EA013005D111F0004008BF6FF080
:10111000004070474FF00000704700BF10B5044614
:101120000E4B18784FF47A73B3FBF0F30C4A106847
:10113000B0FBF3F000F0DCFB68B90F2C01D9012003
:101140000AE0002221464FF0FF3000F091FB034BF4
:101150005C60002000E0012010BD00BF0000002006
:101160002400002008B5074A136843F010031360F9
:10117000032000F06BFB0020FFF7D0FF02F09EFD84
:10118000002008BD00200240034A1168034B1B7871
:101190000B441360704700BF800200200000002055
:1011A000014B1868704700BF80020020F0B583B083
:1011B00005460C4600230193FFF7F2FF2B689A685F
:1011C00012F4807F23D106465A6812F4807F03D13F
:1011D000DB6A13F4700F24D04B4B1F68022001F020
:1011E000D3F9B7FBF0F02B681969484A11422FD1A7
:1011F000D96802F15C4211422AD11969444A11426C
:1012000039D1DA68434B1A4237D029273AE0AB6A22
:1012100043F02003AB62002385F82430012003B0A3
:10122000F0BD2B681B6813F0020F48D1B4F1FF3FEB
:10123000F7D024B1FFF7B4FF801BA042F1D9AB6A0D
:1012400043F00403AB62002385F824300320E6E773
:1012500019692F4A114204D1D96802F16E42114234
:101260000DD019692C4A0A405AB9DA682A4B134042
:101270005BB1FC2706E0292704E0142702E054278D
:1012800000E0FC2707FB00F704E05427FAE7019B86
:1012900001330193019BBB4211D2B4F1FF3FF6D061
:1012A00024B1FFF77DFF801BA042F0D9AB6A43F069
:1012B0000403AB62002385F824300320AFE72B68DA
:1012C0006FF012021A60AB6A43F40073AB622B68D2
:1012D0009B6803F46023B3F5602F01D000209EE7E4
:1012E000EB686BB9AB6A23F48073AB62AB6A13F43F
:1012F000805F07D1AB6A43F00103AB6200208EE749
:1013000000208CE700208AE7240000202449922452
:101310009224491292244900499224000368D86C0F
:101320007047000030B482B00023019390F824305D
:10133000012B00F08B800246012380F824304B689B
:10134000062B29D80568686B03EB8303053B1F2434
:101350009C4020EA04000C6804FA03F303436B6327
:101360000B68092B38D91568E86803EB43031E3B6B
:1013700007249C4020EA04008C6804FA03F303432A
:10138000EB600B68103B012B34D90020002382F85E
:10139000243002B030BC70470C2B0ED80568286B87
:1013A00003EB8303233B1F249C4020EA04000C68CA
:1013B00004FA03F303432B63D2E70568E86A03EBFF
:1013C0008303413B1F249C4020EA04000C6804FA7C
:1013D00003F30343EB62C3E71568286903EB430398
:1013E00007249C4020EA04008C6804FA03F30343BA
:1013F0002B61C6E713681648834205D0936A43F011
:10140000200393620120C1E7986810F4000F1BD1FC
:10141000986840F4000098600B68102B01D0002001
:10142000B4E70C4B1B680C49A1FB03139B0C03EBAB
:1014300083035900019102E0019B013B0193019B51
:10144000002BF9D10020A1E700209FE70220A0E7B0
:10145000002401402400002083DE1B4330B583B00C
:101460000023019303689A6812F0010F2ED19A6845
:1014700042F001029A60174B1B68174AA2FB032334
:101480009B0C019302E0019B013B0193019B002B0C
:10149000F9D10446FFF784FE054623689B6813F0E4
:1014A000010F11D1FFF77CFE401B0228F5D9A36A7A
:1014B00043F01003A362E36A43F00103E3620023F5
:1014C00084F82430012002E0002000E0002003B076
:1014D00030BD00BF2400002083DE1B4390F8243081
:1014E000012B6AD010B50446012380F82430FFF7A1
:1014F000B5FF024600285BD1A36A23F4407323F0B2
:10150000010343F48073A36223682D498B4227D0E3
:10151000A16A21F48011A162596811F4806F05D08D
:10152000A16A21F4405141F48051A162A16A11F4F1
:10153000805F2BD0E16A21F00601E162002184F88E
:1015400024106FF0020119602368996801F460218A
:10155000B1F5602F1DD0996841F4801199602AE09F
:10156000A1F58061496811F4702FD1D0A16A41F4CE
:101570008011A1621349496811F4806FD6D0A16A25
:1015800021F4405141F48051A162CFE70021E16292
:10159000D4E70B498B4204D0996841F4A0019960CB
:1015A00009E0A1F58061496811F4702FD3D1F3E708
:1015B000002384F82430104610BD022210467047E4
:1015C000002801400024014038B503689A6812F0F1
:1015D000010F01D1002038BD04469A6822F00102B3
:1015E0009A60FFF7DDFD054623689B6813F0010F45
:1015F0000ED0FFF7D5FD401B0228F5D9A36A43F0B2
:101600001003A362E36A43F00103E3620120E2E70F
:101610000020E0E700287FD038B50446836A002B1D
:1016200033D02046FFF7D0FFA36A13F010036DD12B
:1016300000286BD1A26A22F4885222F0020242F002
:101640000202A2626268E1690A43E56842EA450271
:10165000A168B1F5807F21D001291CD061690129E1
:101660001FD02568696821F469410B436B602168CC
:101670008D682A4B2B4013438B60A368B3F5807FA2
:1016800020D0012B1ED000211FE0C36280F824303F
:1016900002F036FBC5E74FF48073DFE74FF4807349
:1016A000DCE735B9A169013943EA413343F400630A
:1016B000D7E7A16A41F02001A162E16A41F001018E
:1016C000E162CEE72369013B19052568EB6A23F443
:1016D00070030B43EB6223689968114B0B409A42ED
:1016E0000BD0A36A23F0120343F01003A362E36A52
:1016F00043F00103E36201200DE00023E362A36AEB
:1017000023F0030343F00103A36204E0A36A43F060
:101710001003A362012038BD01207047FDF7E1FFEF
:10172000FE0E1FFF90F82430012B15D010B5044693
:10173000012380F82430FFF747FF024638B9A36A37
:1017400023F4885323F0010343F00103A362002331
:1017500084F82430104610BD022210467047000065
:1017600070B582B00023019390F82430012B68D02B
:101770000446012380F82430FFF726FF054628B1F0
:10178000002384F82430284602B070BDA36A23F4F5
:10179000885323F0020343F00203A3622A4B1E681E
:1017A000022000F0F1FEB6FBF0F04000019002E0F4
:1017B000019B013B0193019B002BF9D12046FFF7D0
:1017C0004DFE2268936843F008039360FFF7E8FC3E
:1017D000064623689A6812F0080F0FD0FFF7E0FC66
:1017E000801B0A28F5D9A36A23F0120343F01003E3
:1017F000A362002384F824300125C4E79A6842F0EC
:1018000004029A60FFF7CCFC064623689B6813F03D
:10181000040F0FD0FFF7C4FC801B0A28F5D9A36A78
:1018200023F0120343F01003A362002384F8243052
:101830000125A8E7A36A23F0030343F00103A36291
:101840009EE702259FE700BF24000020074AD368D7
:1018500023F4E0631B041B0C000200F4E060184357
:1018600040F0BF6040F40030D060704700ED00E011
:1018700030B4174BDB68C3F30223C3F10704042C15
:1018800028BF04241D1D062D18D9033B4FF0FF353A
:1018900005FA04F421EA0401994005FA03F322EA67
:1018A0000303194300280BDB0901C9B200F16040B2
:1018B00000F5614080F8001330BC70470023E5E775
:1018C00000F00F000901C9B2024B1954F4E700BF40
:1018D00000ED00E014ED00E000F01F0240090123DC
:1018E0009340024A42F82030704700BF00E100E018
:1018F0000138B0F1807F0AD2064B5860064AF021C9
:1019000082F823100020986007221A607047012097
:10191000704700BF10E000E000ED00E0704708B540
:10192000FFF7FCFF08BD70B4066CC56B0124B44022
:101930006C60046863604368102B05D0036899608D
:101940000368DA6070BC704703689A600368D96006
:10195000F8E7000060B310B402460168154B0B4471
:101960001548A0FB03031B099B001364134BD363AF
:10197000022382F82130086820F47F5020F03000E4
:10198000536894682343D4682343146923435469F8
:10199000234394692343D469234303430B6000200A
:1019A0009063012382F8213082F8200010BC704738
:1019B00001207047F8FFFDBFCDCCCCCC0000024029
:1019C00038B590F82040012C32D0012480F8204016
:1019D00090F82140012C04D0002380F82030022010
:1019E00038BD0446022084F821000020A063256849
:1019F000286820F0010028602046FFF794FFE36A82
:101A00005BB12268136843F00E0313602268136809
:101A100043F0010313600020E2E72268136823F01B
:101A2000040313602268136843F00A031360EDE7B0
:101A30000220D5E708B590F82130022B03D004230B
:101A40008363012008BD0268136823F00E0313604E
:101A50000268136823F0010313600368194A934274
:101A600014D0143293421FD0143293421ED0143239
:101A700093421ED0143293421ED01432934202D0AD
:101A80004FF0807203E04FF4801200E001220E4B11
:101A90005A60012380F82130002380F82030436B06
:101AA0006BB198470020CDE71022F0E74FF4807229
:101AB000EDE74FF48052EAE74FF48032E7E7002089
:101AC000C0E700BF080002400000024038B5C36B09
:101AD0001A6804682568016C04238B40134235D0D2
:101AE00015F0040F32D0236813F0200F03D12368C0
:101AF00023F0040323600368434A934214D0143252
:101B0000934218D01432934217D01432934217D014
:101B10001432934217D01432934202D04FF08062B5
:101B200003E04FF4800200E00422384B5A60C36A9D
:101B300003B1984738BD4022F7E74FF48062F4E7DD
:101B40004FF48042F1E74FF48022EEE702238B400E
:101B500013423CD015F0020F39D0236813F0200F48
:101B600006D1236823F00A032360012380F8213083
:101B70000368254A934214D0143293421CD0143285
:101B800093421BD0143293421BD0143293421BD089
:101B90001432934202D04FF0007203E04FF400126F
:101BA00000E00222194B5A60002380F82030836A3B
:101BB000002BBFD09847BDE72022F3E74FF4007217
:101BC000F0E74FF40052EDE74FF40032EAE7082364
:101BD00003FA01F11142ADD015F0080FAAD0236825
:101BE00023F00E032360026CC16B012303FA02F29F
:101BF0004A60836380F82130002380F82030036B33
:101C0000002B97D0984795E708000240000002405B
:101C1000F0B482B000263546A1E0002C59D0012C4A
:101C200000D1CE68FF2B68D88446FF2B68D8AC0063
:101C3000DCF800200F27A74022EA070206FA04F486
:101C40002243CCF800204A6812F0805F00F08680C2
:101C50005E4A946944F001049461926902F00102C1
:101C60000192019AAC08A71C594A52F8272005F0A6
:101C70000307BF004FF00F0C0CFA07FC22EA0C0C14
:101C8000544A904242D002F5806290427FD002F5E1
:101C9000806290427DD002F58062904234D004226E
:101CA00035E04D4FBC4214D00BD94C4FBC4210D044
:101CB00007F58037BC420CD0A7F58017BC42B1D1E4
:101CC00007E0A7F58017BC4203D007F58037BC4278
:101CD000A8D18C687CB1012C08D042610826A1E70C
:101CE000CE6808369EE7CE680C369BE70261082670
:101CF00098E7002696E7042694E700F1040C94E7A1
:101D0000A5F10804A40093E7032200E00022BA40F2
:101D100042EA0C0202342E4F47F824204A6812F49B
:101D2000803F38D02E4C22681A4322604A6812F451
:101D3000003F36D02A4C62681A4362604A6812F447
:101D4000801F34D0264CA2681A43A2604A6812F45D
:101D5000001F32D0224CE2681343E36001350F2D9F
:101D600031D80122AA400B6813409A42F6D14C6840
:101D7000122CB8D095D8022CB2D07FF64EAF032CDF
:101D8000B7D0112C7FF44EAFCE6804364AE701225B
:101D9000BDE70222BBE7124C226822EA030222605E
:101DA000C4E70F4C626822EA03026260C6E70C4C8B
:101DB000A26822EA0302A260C8E7094CE26822EAAC
:101DC0000303E360CAE702B0F0BC704700100240B2
:101DD0000000014000080140000021100000311007
:101DE000000401408368194201D10020704701209E
:101DF000704712B909040161704701617047C368F7
:101E00005940C1607047000082B0084B1B68084A07
:101E1000A2FB03235B0A00FB03F0019000BF019BC0
:101E20005A1E0192002BF9D102B070472400002005
:101E3000D34D621070B582B00446036813F0010FF1
:101E40002CD0AB4B5B6803F00C03042B1DD0A84BCC
:101E50005B6803F00C03082B12D06368B3F5803F76
:101E600041D0002B55D103F1804303F504331A68A8
:101E700022F480321A601A6822F480221A6037E055
:101E80009B4B5B6813F4803FE7D0994B1B6813F4BE
:101E9000003F03D06368002B00F0AE81236813F08D
:101EA000020F76D0924B5B6813F00C0F5FD0904B13
:101EB0005B6803F00C03082B54D02369002B00F05F
:101EC0008A808C4B01221A60FFF76AF90546884B1D
:101ED0001B6813F0020F75D1FFF762F9401B02284F
:101EE000F5D903208BE1824A136843F480331360F1
:101EF000636843B3FFF754F905467D4B1B6813F441
:101F0000003FCBD1FFF74CF9401B6428F5D90320E3
:101F100075E1B3F5A02F09D0754B1A6822F4803211
:101F20001A601A6822F480221A60E1E703F1804304
:101F3000A3F53C331A6842F480221A601A6842F40E
:101F400080321A60D4E7FFF72BF90546684B1B680F
:101F500013F4003FA2D0FFF723F9401B6428F5D902
:101F600003204CE1624B5B6813F4803FA5D1604BCA
:101F70001B6813F0020F04D02369012B01D001204C
:101F80003DE15B4A136823F0F803616943EAC1034A
:101F90001360236813F0080F32D0A369002B5BD0C5
:101FA000554B01221A60FFF7FBF80546504B5B6A60
:101FB00013F0020F21D1FFF7F3F8401B0228F5D9E7
:101FC00003201CE14A4A136823F0F803616943EADD
:101FD000C1031360DDE7474B00221A60FFF7E0F80A
:101FE0000546434B1B6813F0020FD2D0FFF7D8F819
:101FF000401B0228F5D9032001E10120FFF704FF6F
:10200000236813F0040F00F09780394BDB6913F05D
:10201000805F33D1364BDA6942F08052DA61DB6996
:1020200003F080530193019B0125344B1B6813F48B
:10203000807F25D0E368012B36D0002B4CD103F1F3
:10204000804303F504331A6A22F001021A621A6A05
:1020500022F004021A622CE0274B00221A60FFF7DC
:102060009FF80546224B5B6A13F0020FC8D0FFF7BA
:1020700097F8401B0228F5D90320C0E00025D4E7DB
:102080001E4A136843F480731360FFF789F806460D
:102090001A4B1B6813F4807FCCD1FFF781F8801BAB
:1020A0006428F5D90320AAE0114A136A43F001031A
:1020B0001362E36873B3FFF773F806460C4B1B6AB1
:1020C00013F0020F37D1FFF76BF8801B41F2883312
:1020D0009842F3D9032092E0052B11D0044B1A6AE1
:1020E00022F001021A621A6A22F004021A62E0E780
:1020F0000010024000004242800442420070004052
:10210000414B1A6A42F004021A621A6A42F0010252
:102110001A62CEE7FFF744F806463B4B1B6A13F002
:10212000020F08D0FFF73CF8801B41F28833984239
:10213000F3D9032063E0E5B9E369002B5ED0324AAE
:10214000526802F00C02082A5BD0022B17D02F4BEA
:1021500000221A60FFF724F804462B4B1B6813F08B
:10216000007F47D0FFF71CF8001B0228F5D9032099
:1021700045E0254AD36923F08053D361DCE7234B44
:1021800000221A60FFF70CF805461F4B1B6813F07E
:10219000007F06D0FFF704F8401B0228F5D9032082
:1021A0002DE0236AB3F5803F1AD017494B6823F41A
:1021B0007413226A606A024313434B60134B01227B
:1021C0001A60FEF7EDFF04460F4B1B6813F0007F0B
:1021D0000ED1FEF7E5FF001B0228F5D903200EE023
:1021E000094A536823F40033A1680B435360DCE7CA
:1021F000002004E0002002E0012000E0002002B006
:1022000070BD0120FBE700BF0010024060004242A9
:1022100010B487B0184C94E80F000DF1180C0CE9BD
:102220000F00238AADF80430144B5B6803F00C02F6
:10223000042A03D0082A05D0114800E0114807B04D
:1022400010BC7047C3F3834206A90A4412F8102C4D
:1022500013F4803F0CD0094B5B68C3F340430B443D
:1022600013F8143C074800FB02F0B0FBF3F0E6E77C
:10227000054800FB02F0E2E7586100080010024048
:1022800000127A00809FD50000093D00624B1B6858
:1022900003F007038B420CD25F4A136823F0070355
:1022A0000B431360136803F007038B4201D0012036
:1022B000704770B5036813F0020F17D013F0040FC6
:1022C00004D0564A536843F4E0635360036813F044
:1022D000080F04D0514A536843F4605353604F4A87
:1022E000536823F0F0038468234353600D4604468B
:1022F000036813F0010F52D04368012B23D0022B47
:1023000028D0464A126812F0020F00F0828043493A
:102310004A6822F0030213434B60FEF741FF064672
:102320006368012B1DD0022B2AD03C4B5B6813F055
:102330000C0F34D0FEF734FF801B41F288339842F3
:10234000F3D9032064E0354A126812F4003FDED16D
:1023500001205DE0314A126812F0007FD7D10120E0
:1023600056E02E4B5B6803F00C03042B17D0FEF7EE
:1023700017FF801B41F288339842F2D9032047E0CF
:10238000264B5B6803F00C03082B08D0FEF708FF10
:10239000801B41F288339842F2D9032038E01E4B6B
:1023A0001B6803F00703AB420CD91B4A136823F0E8
:1023B00007032B431360136803F00703AB4201D0FC
:1023C000012025E0236813F0040F06D0134A536858
:1023D00023F4E063E1680B435360236813F0080FB4
:1023E00007D00E4A536823F46053216943EAC103BE
:1023F0005360FFF70DFF094B5B68C3F30313084AF3
:10240000D35CD840074B18600020FEF787FE002001
:1024100070BD0120FCE700BF002002400010024018
:102420008061000824000020014B1868704700BF3D
:102430002400002008B5FFF7F7FF044B5B68C3F3E7
:102440000223034AD35CD84008BD00BF00100240FD
:102450009061000808B5FFF7E7FF044B5B68C3F322
:10246000C223034AD35CD84008BD00BF001002401D
:102470009061000870B582B00446036813F0010F44
:1024800034D03E4BDB6913F0805F48D13B4BDA69B7
:1024900042F08052DA61DB6903F080530193019BC3
:1024A0000125374B1B6813F4807F3AD0334B1B6AEE
:1024B00013F4407311D0626802F440729A420CD057
:1024C0002E4A136A23F440702E4901260E6000261E
:1024D0000E60106213F0010F37D1284A136A23F4FB
:1024E000407361680B431362002D3FD1236813F0E2
:1024F000020F06D0214A536823F44043A1680B43DE
:102500005360236813F0100F35D01C4A536823F42E
:102510008003E1680B435360002002B070BD0025CA
:10252000BFE7174A136843F480731360FEF738FE61
:102530000646134B1B6813F4807FB7D1FEF730FEBD
:10254000801B6428F5D90320E7E7FEF729FE06463D
:102550000A4B1B6A13F0020FBFD1FEF721FE801B4E
:1025600041F288339842F3D90320D6E7D36923F0A8
:102570008053D361BAE70020CFE700BF00100240CC
:10258000007000404004424230B587B00546384CE8
:1025900094E80F000DF1180C0CE90F00238AADF838
:1025A0000430022D50D0102D03D0012D2BD000204F
:1025B00054E0304B5A681B6813F0807F50D0C2F350
:1025C000834306A90B4413F8100C12F4803F16D075
:1025D000284B5B68C3F340430B4413F8142C264B81
:1025E000B3FBF2F300FB03F0224B5B6813F4800FA4
:1025F00034D14000214BA3FB003040082EE0204B9B
:1026000003FB00F0F0E71B4B1B6A40F202321A405A
:10261000B2F5817F26D003F44073B3F5007F04D078
:10262000B3F5407F09D0002018E0124A526A12F038
:10263000020FF5D049F6404010E00E4B1B6813F432
:10264000003F12D1002009E0FFF704FF094B5B684F
:10265000C3F3813301335B00B0FBF3F007B030BD4F
:102660000020FBE74FF40040F8E70648F6E700BF1C
:102670006C61000800100240809FD500ABAAAAAA96
:1026800000093D003FAB010070B4036A23F0010371
:102690000362036A4268846924F073040D6845EAA2
:1026A000040623F002048B6823430D4DA84209D091
:1026B0000B4DA8420DD0426086614A6842630362B6
:1026C00070BC704723F00803CC68234323F0040355
:1026D000EEE722F440724C6914438A692243EAE728
:1026E000002C014030B4036A23F480730362036A50
:1026F0004268C46924F073040D682C4323F400730A
:102700008D6843EA05230F4DA84209D00D4DA8421C
:102710000ED04260C4614A68C263036230BC704735
:1027200023F40063CD6843EA052323F48063EDE7D7
:1027300022F440524D6942EA05128D6942EA0512BF
:10274000E7E700BF002C014030B4036A23F4805354
:102750000362036A4468C26922F4E6420D6842EAF1
:10276000052223F400538D6843EA0533074DA84240
:1027700006D04460C2614A680264036230BC70479C
:1027800024F480444D6944EA8514F2E7002C0140AA
:1027900010B4036A046A24F001040462846924F01A
:1027A000F00444EA021223F00A030B43826103623D
:1027B00010BC704710B4036A23F0100303628469ED
:1027C000036A24F4704444EA023223F0A00343EA8B
:1027D00001138261036210BC7047836823F07003A9
:1027E00041F0070119438160704710B4846824F4F4
:1027F0007F4442EA03230B432343836010BC7047AA
:10280000022380F83D300268136843F0010313602F
:10281000012380F83D30002070470268D36843F000
:102820000103D3600268136843F0010313600020C2
:102830007047704790F83C30012B7DD010B50446AE
:10284000012380F83C30022380F83D300268936811
:1028500023F47F4323F0770393600B68402B57D01A
:1028600010D9702B3ED01FD8502B47D0602B32D1BF
:10287000CA6849680068FFF79DFF60212068FFF77C
:10288000ACFF28E0102B4DD008D9202B4FD0302B97
:1028900021D130210068FFF7A0FF1CE0DBB9002147
:1028A0000068FFF79AFF16E0B3F5805F0ED0B3F52E
:1028B000005F10D1CB684A6889680068FFF795FF10
:1028C0002268936843F48043936004E0026893684D
:1028D00023F007039360012384F83D30002084F83F
:1028E0003C0010BDCB684A6889680068FFF77DFF2F
:1028F0002268936843F077039360ECE7CA684968FD
:102900000068FFF745FF50212068FFF766FFE2E708
:10291000CA6849680068FFF73BFF40212068FFF75D
:102920005CFFD8E710210068FFF757FFD3E72021AD
:102930000068FFF752FFCEE70220704770477047EC
:102940007047704710B5044603681A6912F0020F09
:1029500011D0DA6812F0020F0DD06FF002021A6186
:102960000123037703689B6913F0030F70D0FFF70F
:10297000E6FF0023237723681A6912F0040F12D0B0
:10298000DA6812F0040F0ED06FF004021A6102230D
:10299000237723689B6913F4407F5FD02046FFF7BD
:1029A000CEFF0023237723681A6912F0080F12D094
:1029B000DA6812F0080F0ED06FF008021A610423D3
:1029C00023772368DB6913F0030F4ED02046FFF70F
:1029D000B6FF0023237723681A6912F0100F12D074
:1029E000DA6812F0100F0ED06FF010021A6108238F
:1029F00023772368DB6913F4407F3DD02046FFF73F
:102A00009EFF0023237723681A6912F0010F03D079
:102A1000DA6812F0010F36D123681A6912F0800FBC
:102A200003D0DA6812F0800F34D123681A6912F0EB
:102A3000400F03D0DA6812F0400F32D123681A69D0
:102A400012F0200F03D0DA6812F0200F30D110BD41
:102A5000FFF774FF2046FFF773FF8AE72046FFF772
:102A60006DFF2046FFF76CFF9BE72046FFF766FFF0
:102A70002046FFF765FFACE72046FFF75FFF2046E3
:102A8000FFF75EFFBDE76FF001021A61204600F01C
:102A9000DFFFC1E76FF080021A61204600F08CF979
:102AA000C3E76FF040021A612046FFF74AFFC5E70F
:102AB0006FF020021A61204600F07DF9C7E70000A0
:102AC00003681B4A90420AD0B0F1804F07D0A2F5AC
:102AD0009432904203D002F58062904203D123F0F9
:102AE00070034A681343124A90420AD0B0F1804FF3
:102AF00007D0A2F59432904203D002F58062904252
:102B000003D123F44073CA68134323F080034A6956
:102B1000134303608B68C3620B688362044B984263
:102B200002D00123436170470B690363F9E700BFDB
:102B3000002C0140A8B110B5044690F83D305BB1BF
:102B4000022384F83D30211D2068FFF7B9FF0123DF
:102B500084F83D30002010BD80F83C3001F000F9D1
:102B6000EEE701207047A8B110B5044690F83D305B
:102B70005BB1022384F83D30211D2068FFF7A0FFE0
:102B8000012384F83D30002010BD80F83C30FFF771
:102B900050FEEEE70120704730B4036A23F01003C3
:102BA0000362036A4468826922F4E6420D6842EADD
:102BB000052223F020038D6843EA05130E4DA84239
:102BC00009D00D4DA8420ED0446082614A688263EC
:102BD000036230BC704723F08003CD6843EA0513DD
:102BE00023F04003EDE724F440644D6944EA850492
:102BF0008D6944EA8504E7E7002C014038B590F878
:102C00003C30012B66D00D460446012380F83C3051
:102C1000022380F83D300C2A1AD8DFE802F00719A9
:102C20001919201919193419191947000068FFF7E3
:102C30002BFD2268936943F008039361226893692E
:102C400023F0040393612268936929690B4393611C
:102C5000012384F83D30002084F83C0038BD006832
:102C6000FFF79AFF2268936943F400639361226837
:102C7000936923F48063936122689369296943EA25
:102C800001239361E4E70068FFF72CFD2268D36914
:102C900043F00803D3612268D36923F00403D361AE
:102CA0002268D36929690B43D361D1E70068FFF734
:102CB0004BFD2268D36943F40063D3612268D36972
:102CC00023F48063D3612268D369296943EA01232D
:102CD000D361BDE70220C1E710B4012303FA01F478
:102CE000036A23EA04030362036A8A40134303620C
:102CF00010BC704710B5044601220068FFF7ECFFD6
:102D00002368074A934206D02268136843F0010300
:102D10001360002010BD5A6C42F400425A64F3E77D
:102D2000002C014010B4042303FA01F4036A23EADF
:102D300004030362036A8A401343036210BC7047B2
:102D400010B5044604220068FFF7ECFF2268536CBC
:102D500043F4004353642268136843F00103136093
:102D6000002010BD90F83C30012B22D030B401225D
:102D700080F83C20022380F83D300468636823F02B
:102D800070036360046863680D682B4363600468C4
:102D9000A36823F08003A3600468A36849680B4319
:102DA000A36080F83D20002380F83C30184630BCFA
:102DB000704702207047704770470268D36823F05D
:102DC000C003D360202380F8393070470268D3688D
:102DD00023F49073D3600268536923F001035361B5
:102DE000202380F83A30704790F83930DBB2212B3D
:102DF0002AD18368B3F5805F16D0036A5A1C026239
:102E00001A7803685A60C38C013B9BB2C384EBB948
:102E10000268D36823F08003D3600268D36843F06C
:102E20004003D36000207047036A1B880268C3F325
:102E30000803536003691BB9036A02330362E2E7C4
:102E4000036A01330362DEE7022070470020704707
:102E50002DE9F84305460268136923F44053C1681D
:102E60000B4313618368026913434269134301688A
:102E7000CA6822F4B05222F00C021343CB600268FD
:102E8000536923F4407381690B4353610268594BC2
:102E90009A4257D0FFF7CEFA00EB800000EB80009B
:102EA0006C68A400B0FBF4F4534FA7FB043464092E
:102EB0002601FFF7BFFA00EB800000EB80006C6892
:102EC000A400B0FBF4F9FFF7B5FA00EB800000EBCB
:102ED00080006C68A400B0FBF4F4A7FB0434640920
:102EE0004FF0640808FB149424013234A7FB043427
:102EF000640904F0F0043444FFF79CFA00EB80000E
:102F000000EB80006E68B600B0FBF6F6FFF792FAB1
:102F100000EB800000EB80006B689B00B0FBF3F0DF
:102F2000A7FB0030400908FB10684FEA081808F1B9
:102F30003208A7FB0837C7F343172B6827449F6065
:102F4000BDE8F883FFF786FA00EB800000EB800015
:102F50006C68A400B0FBF4F4274FA7FB04346409A9
:102F60002601FFF777FA00EB800000EB80006C6829
:102F7000A400B0FBF4F9FFF76DFA00EB800000EB62
:102F800080006C68A400B0FBF4F4A7FB043464096F
:102F90004FF0640808FB149424013234A7FB043476
:102FA000640904F0F0043444FFF754FA00EB8000A5
:102FB00000EB80006E68B600B0FBF6F6FFF74AFA49
:102FC00000EB800000EB80006B689B00B0FBF3F02F
:102FD000A7FB0030400908FB10684FEA081808F109
:102FE0003208A7FB0837C7F343172B6827449F60B5
:102FF000A6E700BF003801401F85EB5158B310B55C
:10300000044690F839300BB3242384F83930226811
:10301000D36823F40053D3602046FFF719FF2268DA
:10302000136923F4904313612268536923F02A0340
:1030300053612268D36843F40053D3600020E063F7
:10304000202384F8393084F83A3010BD80F83830C5
:1030500000F018FFD8E701207047000038B590F85D
:103060003940E4B2202C31D1002931D0002A31D0AE
:1030700090F83830012B2FD013460446012280F8F7
:10308000382001628384C3840025C563212280F82F
:103090003920026B11489062226B1148D062226B7A
:1030A00010481063226B556322680432206BFEF7D0
:1030B00087FC23686FF040021A6084F83850226859
:1030C000536943F080035361284600E0022038BD75
:1030D0000120FCE70120FAE70220F8E7EB300008C6
:1030E00037310008E1310008704708B5436A0268CB
:1030F000126812F0200F0CD10022DA8419684A6994
:1031000022F080024A611A68D36843F04003D3601A
:1031100008BD1846FFF7E8FFFAE708B50168CB6875
:1031200023F04003CB60202380F83930FFF7DCFF29
:10313000002008BD704708B5406AFFF7FBFF08BDD7
:10314000704708B590F83A30DBB2222B45D183683E
:10315000B3F5805F0ED0036903BB03685A68836AC6
:10316000591C81621A70C38D013B9BB2C385F3B1B8
:10317000002033E0826A036943B903685B68C3F3E4
:1031800008031380836A02338362ECE703685B6899
:10319000DBB21380836A01338362E4E703685B6810
:1031A000826A511C816203F07F031370DBE70268BF
:1031B000D36823F02003D3600268D36823F48073BC
:1031C000D3600268536923F001035361202380F820
:1031D0003A30FFF7B5FF002000E0022008BD70473D
:1031E00010B5446A23685A6994F83930DBB2212B50
:1031F00010D023685A6902F0400294F83A30DBB2EA
:10320000222B11D0E36B43F01003E3632046FFF75A
:10321000E6FF10BD02F08002002AEAD00023E3841A
:103220002046FFF7CAFDE4E7002AEBD00023E38540
:103230002046FFF7CBFDE5E710B5044602681368AA
:10324000D168526913F00F0005D113F0200F02D09E
:1032500011F0200F53D1002867D012F0010202D1E3
:1032600011F4907F61D013F0010F06D011F4807F2C
:1032700003D0E06B40F00100E06313F0040F04D0D2
:103280001AB1E06B40F00200E06313F0020F04D0CB
:103290001AB1E06B40F00400E06313F0080F04D0B3
:1032A0001AB1E26B42F00802E263E26B002A48D0F6
:1032B00013F0200F02D011F0200F24D123685B6996
:1032C00003F04003E26B12F0080F00D13BB320463D
:1032D000FFF77CFD23685A6912F0400F1BD05A6932
:1032E00022F040025A61636B8BB11A4A5A63606BD9
:1032F000FEF7A0FB28B3606B436B984721E02046A4
:10330000FFF71FFF1DE02046FFF71BFFD6E7204613
:10331000FFF765FF15E02046FFF761FF11E020464B
:10332000FFF75DFF0023E3630BE013F0800F02D093
:1033300011F0800F06D113F0400F02D011F0400FB2
:1033400004D110BD2046FFF74FFDFAE72046FFF7F6
:10335000E4FEF6E75933000808B5406A0023C38548
:10336000C384FFF73CFF08BD00B583B00A4B5A6920
:1033700042F001025A615B6903F001030193019B72
:10338000002211460E20FEF773FA0E20FEF7A4FA73
:1033900003B05DF804FB00BF0010024008B5084808
:1033A000084B03604FF4E133436000238360C36044
:1033B00003610C2242618361C361FFF71FFE08BDF8
:1033C00078030020003801402DE9F04186B0002448
:1033D0000294039404940594294B9A6942F00402E0
:1033E0009A619A6902F004020092009A9A6942F086
:1033F00008029A619B6903F008030193019BDFF8BF
:103400008880224610214046FEF7F3FC1D4D2246DF
:1034100040F202412846FEF7ECFC01224FF4E04165
:103420002846FEF7E6FC1023029301270397049435
:103430000226059602A94046FEF7EAFB40F2024347
:10344000029303970494059602A92846FEF7E0FB31
:103450004FF4E0430293039704940323059302A9D6
:103460002846FEF7D5FB4FF40043029303940496DD
:1034700002A92846FEF7CCFB06B0BDE8F08100BFEC
:1034800000100240000C01400008014030B587B038
:103490000024029403940494059400940194104D24
:1034A0004FF080432B6041F6FF036B60AC6040F24D
:1034B000E733EB602C618023AB612846FFF73AFBD2
:1034C0004FF48053029302A92846FFF7B3F9009402
:1034D000019469462846FFF745FC07B030BD00BFA0
:1034E000F803002030B587B00024029403940494BC
:1034F0000594009401940F4D0F4B2B606C60AC60F1
:1035000044F61F63EB602C616C618023AB6128463D
:10351000FFF710FB4FF48053029302A92846FFF7F0
:1035200089F90094019469462846FFF71BFC07B00F
:1035300030BD00BFB8030020002C014030B587B07B
:1035400000240294039404940594009401940F4D74
:103550000F4B2B6041F6FF036B60AC600923EB60FF
:103560002C618023AB612846FFF7E4FA4FF48053C7
:10357000029302A92846FFF75DF900940194694679
:103580002846FFF7EFFB07B030BD00BF84020020E4
:103590000008004030B58FB000240A940B940C94BE
:1035A0000D9408940994019402940394049405944E
:1035B00006940794164D174B2B606C60AC6040F27C
:1035C000FF33EB602C618023AB612846FFF7B2FA32
:1035D0004FF480530A930AA92846FFF72BF928468F
:1035E000FFF7C1FA0894099408A92846FFF7BAFB27
:1035F00060230193029403940594224601A928466E
:10360000FFF7FCFA284600F00BFC0FB030BD00BFFE
:10361000C40200200004004070B584B0002501956C
:10362000029503950C4C0D4B2360A560E560656128
:103630004FF46023E3616560012626612046FDF7B3
:10364000E9FF062301930296039501A92046FDF7A1
:1036500069FE04B070BD00BF480300200024014093
:1036600030B595B0202200210BA800F015FD0024F4
:103670000594069407940894099401940294039481
:10368000049402250A9501230E9310230F9311959C
:103690004FF4601313930AA8FEF7CCFB0F23059396
:1036A000069507944FF4806308930994294605A86A
:1036B000FEF7ECFD01954FF40043039301A8FEF7DC
:1036C000D9FE15B030BD000008B5FDF74BFDFFF782
:1036D000C7FFFFF779FEFFF747FEFFF75BFFFFF736
:1036E0009BFFFFF7D3FEFFF7FDFEFFF727FFFFF776
:1036F00055FE1848FFF791F8002211461920FEF7F1
:10370000B7F81920FEF7E8F81348FFF786F800220B
:1037100011461C20FEF7ACF81C20FEF7DDF80F4C1C
:103720002046FFF76DF800212046FFF7E3FA00215D
:103730002046FFF705FB0A48FFF76FF80022114605
:103740001E20FEF795F81E20FEF7C6F80548FFF785
:1037500055FCFEE7B8030020F8030020C402002057
:1037600084020020780300202DE9F0412D4DD5F88A
:103770000080C5F80480FDF7C3F92B4E3168FDF7D2
:1037800009F9044628607168FDF70EFA0646A8603C
:1037900026492046FDF7A6FB38B125492046FDF70E
:1037A000BFFB10B10022EA6013E022492046FDF77A
:1037B00099FB58B120492046FDF7B2FB30B1194DB5
:1037C0002146E868FDF7E8F8E86002E0154B0022C2
:1037D000DA60144F144B9968F868FDF7E5F905466F
:1037E000386112492046FDF77DFB20B10F49204684
:1037F000FDF796FB98B941462046FDF7CBF80A4BFA
:10380000D968FDF7D1F9074B586129463046FDF7D5
:10381000C3F8044B5969FDF7BFF8BDE8F0810022F9
:103820007A61F2E7140200200800002000009643AD
:10383000000096C300004844000048C438B5354D28
:10384000A869FFF791FF01463348FDF761FA044686
:10385000E8613249FDF750FB68B300212046FDF7CF
:1038600055FB40B32D4AEA612A4BDC692C492046BE
:10387000FDF756FB00282ED12A492046FDF732FBE2
:1038800048BB00212046FDF74BFB58B3264C0122D4
:103890004FF400512046FEF7ACFA244B1D681D4B37
:1038A000D869FDF747FBA86200224FF4804120460B
:1038B000FEF79FFA15E01E492046FDF727FB00287A
:1038C000D2D000212046FDF70DFB0028CCD0114BB3
:1038D000174ADA61C8E701224FF480411248FEF727
:1038E00088FA38BD104C00224FF400512046FEF7F4
:1038F00080FA084BD86900F10040D8610B4B1D6875
:10390000FDF718FBA86200224FF480412046FEF725
:1039100070FAE6E71402002000606A4600002041C9
:103920000000FA430000FAC3000C0140B803002075
:10393000000020C138B50A4B1C6901462046FDF73E
:103940002BF805460749FDF7D7FA40B1044B5C61F7
:103950001D61054B1C682846FDF7ECFA606338BD15
:103960000800002000802244C402002070B50646F2
:103970000D461A4B1C6A1A492046FDF7BDFA98B944
:1039800018492046FDF7C2FA90B931462846FDF79E
:10399000C7FAA8B1144B59691869FDF7C1FA58B1B3
:1039A0000F48FFF7C7FF14E01048FFF7C3FFECE72D
:1039B0000B48FFF7BFFFE8E70C48FFF7BBFF08E045
:1039C000094B59691869FDF7ABFA18B90448FFF7B4
:1039D000B1FF70BD0548FFF7ADFFFAE71402002004
:1039E000000020410000704108000020000020C1BC
:1039F00000B585B00190062303930123029301A92A
:103A00000248FDF78FFC05B05DF804FB4803002079
:103A100070B50646FFF7ECFF0B4C2046FDF7A0FE05
:103A20002046FDF75BFD4FF47A712046FDF7BEFBA3
:103A30002046FDF773FC05462046FDF773FE304631
:103A4000FFF7D6FF284670BD4803002000000000A5
:103A50002DE9F04387B004460268894B9A420AD0A8
:103A60002368B3F1804F0CD02268864B9A4210D065
:103A700007B0BDE8F0834FF480518348FEF7BFF9EB
:103A8000EEE70320FFF7C4FF804B9861FFF7D6FEF7
:103A9000EAE74FF400417C48FEF7A4F97B4C6062F2
:103AA0000720FFF7B5FFA062FDF72AF8FCF7B4FC8A
:103AB0000022774BFCF708FD69A3D3E90023FCF74C
:103AC00003FD69A3D3E90023FCF7FEFCFCF70EFF1E
:103AD00020620620FFF79CFFE062FDF711F8FCF77B
:103AE0009BFC00226A4BFCF7EFFC5DA3D3E90023AB
:103AF000FCF7EAFC5EA3D3E90023FCF70FFEFCF71A
:103B0000F5FE05462063266A3146FDF74DF86063F1
:103B1000A16BFCF741FF0746A063E16B3046FCF761
:103B20003BFF0646E063216C2846FCF735FF05465F
:103B30002064636C01336364B3F57A7F98D100230A
:103B4000636454493846FDF7E3F80746A0635149DA
:103B50003046FDF7DDF8064620624E492846FDF75F
:103B6000D7F82063636A002B67D14FF0824130465B
:103B7000FDF7B8F9002849D0474B484A1A61484A2E
:103B80005A61484B1B6800225A63012210213E48AB
:103B9000FEF72FF93D4CA56BA5643F4B1869FCF768
:103BA0003BFC0022404BFCF78FFC33A3D3E90023FE
:103BB000FCF7B4FDFCF79AFE0646E064002323659B
:103BC0002846FCF729FC80468946384D3046FCF7EC
:103BD00023FCCDE90401206BFCF71EFCCDE90201BA
:103BE000206AFCF719FCCDE9000142464B463049FA
:103BF000284600F0A9FE606582B229462D48FFF7ED
:103C00002DFA0023E3632364A36331E739461F4B96
:103C1000986CFFF7ABFE1C4C01224FF480612046EC
:103C2000FEF7E7F8002202212046FEF7E2F8002224
:103C300010212046FEF7DDF8ACE71A4B1B6840F276
:103C40003C425A63104C012202212046FEF7D1F873
:103C500000224FF480612046FEF7CBF89AE700BFC0
:103C60006666666666660A406666666666661340EF
:103C7000D7A3703D0AD70D400000000000F490402B
:103C8000002C014000080040000C014014020020FC
:103C90000000303F00007A44080000200000484344
:103CA0000000A041C4020020000059403804002058
:103CB00098610008780300207047000082B00E4B26
:103CC0009A6942F001029A619A6902F00102009237
:103CD000009ADA6942F08052DA61DB6903F08053BE
:103CE0000193019B054A536823F0E06343F080632E
:103CF000536002B0704700BF001002400000014056
:103D000000B587B0002302930393049305930268E0
:103D1000114B9A4202D007B05DF804FB03F56C43E7
:103D20009A6942F400729A619A6902F400720092F0
:103D3000009A9A6942F004029A619B6903F00403B5
:103D40000193019BC82302930323039302A9034811
:103D5000FDF75EFFDFE700BF0024014000080140DF
:103D600000B585B003682A4A93420BD0B3F1804F67
:103D70001BD0284A93422CD0274A934234D005B016
:103D80005DF804FB254B9A6942F400629A619B69D5
:103D900003F400630093009B002211461920FDF7F5
:103DA00067FD1920FDF798FDE9E703F50433DA69AB
:103DB00042F00102DA61DB6903F001030193019B28
:103DC000002211461C20FDF753FD1C20FDF784FD49
:103DD000D5E7124BDA6942F00202DA61DB6903F0DF
:103DE00002030293029BCAE70C4BDA6942F0040219
:103DF000DA61DB6903F004030393039B002211469D
:103E00001E20FDF735FD1E20FDF766FDB7E700BF5C
:103E1000002C014000040040000800400010024057
:103E200000B587B0002302930393049305930268BF
:103E3000114B9A4202D007B05DF804FB03F503333F
:103E40009A6942F008029A619B6903F008030193A2
:103E5000019B1023029302230393059302A90748B1
:103E6000FDF7D6FE064A536823F4406343F0E0634F
:103E700043F400635360DEE700040040000C01409F
:103E800000000140F0B587B0002302930393049330
:103E900005930268284B9A4201D007B0F0BD044652
:103EA00003F558439A6942F480429A619A6902F490
:103EB00080420092009A9A6942F008029A619B69D6
:103EC00003F008030193019B402302930223039311
:103ED00003230593194F02A93846FDF799FE802662
:103EE000029600250395049502A93846FDF790FE39
:103EF000134A536843F0E06343F0040353601148EE
:103F0000114B0360102343608560C6600561456105
:103F10008561C561FDF71EFD58B90A4B23635C62DC
:103F2000002211462520FDF7A3FC2520FDF7D4FC37
:103F3000B3E7FFF7C1FEF0E700380140000C014095
:103F40000000014004030020440002407047FEE7E7
:103F5000FEE7FEE7FEE770477047704708B5FDF7DC
:103F600013F9FDF7DCFC08BD08B50248FDF7AEFD0E
:103F700008BD00BF0403002008B50248FEF7E2FCBC
:103F800008BD00BFB803002008B50248FEF7DAFC00
:103F900008BD00BFF803002008B50248FEF7D2FCB8
:103FA00008BD00BF8402002008B50248FFF744F9AD
:103FB00008BD00BF780300200F4B1A6842F00102D1
:103FC0001A6059680D4A0A405A601A6822F08472D1
:103FD00022F480321A601A6822F480221A605A6829
:103FE00022F4FE025A604FF41F029A60044B4FF015
:103FF00000629A60704700BF001002400000FFF8A6
:1040000000ED00E0002103E00B4B5B58435004310E
:104010000A480B4B42189A42F6D30A4A02E00023A0
:1040200042F8043B084B9A42F9D3FFF7C5FF00F072
:104030000FF8FFF749FB70471864000800000020E4
:10404000F8010020F80100207C040020FEE70000B9
:1040500070B500250C4E0D4CA41BA410A54209D12F
:1040600002F06EF800250A4E0A4CA41BA410A542CB
:1040700005D170BD56F8253098470135EEE756F862
:10408000253098470135F2E71064000810640008F5
:10409000106400081464000803460244934200D1EF
:1040A000704703F8011BF9E7002B2DE9F0471E4686
:1040B000BBBF03F100431E4600232D2388B0149F8D
:1040C000DDE9121A27F02007462F1446109D0B70C9
:1040D00004D0452F00D10135022300E0032307AAB5
:1040E000049206AACDE902A2CDE900352246334664
:1040F00000F0DAFC472F804602D1119BDB0726D562
:10410000462F08EB050911D198F80030302B0AD161
:104110000022002320463146FCF790FF18B9C5F174
:104120000105CAF80050DAF8003099440022002353
:1041300020463146FCF782FF38B93022079B4B45B9
:1041400005D2591C07911A70F8E7CDF81C9040462B
:10415000079B159AA3EB0803136008B0BDE8F0872E
:10416000F7B50029B4BF2D232B230446B8BF49421D
:10417000092904F8022B437021DD0DF107031F46C6
:104180000A2691FBF6F506FB1511092D01F1300108
:1041900003F8011C03F1FF32294609DC3031023BF0
:1041A00002F8011CBB42224604D3101A03B0F0BD32
:1041B0001346E6E713F8012B04F8012BF2E730234E
:1041C00019448370021DC170EFE700002DE9F04F24
:1041D00091B00C461A9F93461E46054601F018FA08
:1041E000036818460993FCF7CBFE00230E933B6847
:1041F0000A90073323F0070303F1080294F81880AC
:10420000D4F800A03A60D3E90023C4E91223D4E92A
:10421000127929F000430B934FF0FF32A64B38463A
:104220000B99FCF73DFF68BB4FF0FF32A24B3846BD
:104230000B99FCF717FF28BB00220023384649469C
:10424000FCF706FF10B12D2384F843309B4F9C4BA5
:10425000B8F1470F98BF1F4603234FF000092361B1
:104260002AF00403236000965B460FAA21462846E5
:1042700000F0E2F9013040F090804FF0FF3011B0D3
:10428000BDE8F08F3A464B4638464946FCF708FFF2
:1042900010B18C4F8C4BDBE763684AF48062591C89
:1042A0000DA80EA940D1062363604FF0000C0DF15C
:1042B0003303CDE9012363682260CDE9030800934D
:1042C0003A464B46CDE9051C2846FFF7EDFE08F0BF
:1042D000DF03472B074609D10D9BD81C02DB626820
:1042E000934247DDA8F102085FFA88F8B8F1650F3C
:1042F0000D9924D80139424604F150000D91FFF781
:104300002FFF0E9A81461318012A236102DC2268CE
:10431000D10701D5013323619DF83330002BA2D0A2
:104320002D2384F843309EE7B8F1670F00F06E81CB
:10433000B8F1470FB9D1002BB7D10123B4E7B8F1D9
:10434000660F19D1002963680CDD216113B9226859
:10435000D20702D501330B4423610D9B4FF00009B6
:10436000A365D9E713B92268D00701D50233F3E773
:104370000123F1E74FF06708DDE90D32934205DBD9
:1043800022682361D107E8D50133E5E7002BCCBFD4
:104390000123C3F102031344DEE723685A0507D45F
:1043A00023693A4659462846B047013029D164E787
:1043B000B8F1650F40F2D780D4E912010022002342
:1043C000FCF73CFE88B30123404A59462846B047D3
:1043D00001303FF452AFDDE90D239A4202DB23683E
:1043E000D8070ED5DDE9092359462846B0470130E4
:1043F0003FF443AF002704F11A080E9B013BBB4278
:1044000009DC23689F0700F1FD80E0680F9B98425C
:10441000B8BF184633E70123424659462846B047FD
:1044200001303FF42AAF0137E7E70D9B002B2BDC6F
:104430000123264A59462846B04701303FF41DAFB4
:104440000D9B23B90E9B13B92368D907D9D5DDE994
:10445000092359462846B04701303FF40EAF4FF0CC
:10446000000804F11A090D9B5B42434501DC0E9BD9
:1044700097E701234A4659462846B04701303FF4A2
:10448000FCAE08F10108EEE70E9AA36D9A42A8BFB0
:104490001A46002A904607DD134659463A462846F2
:1044A000B04701303FF4E9AE04F11A034FF0000ABF
:1044B00028EAE8780B9315E0FFFFEF7FB86100086A
:1044C000B4610008C0610008BC610008C461000854
:1044D00001230B9A59462846B04701303FF4CDAE30
:1044E0000AF1010AD4F85890A9EB08035345EFDC10
:1044F000DDE90D239A424F4414DB2368DA0711D417
:104500000E9B0D99A3EB0902A3EB01099145A8BFEE
:104510009146B9F1000F0DDC002729EAE97904F191
:104520001A0818E0DDE9092359462846B04701304A
:10453000E6D1A2E64B463A4659462846B0470130F6
:10454000EAD19AE60123424659462846B04701304F
:104550003FF493AE0137DDE90D239B1AA3EB09036A
:10456000BB42EFDC4DE70E9A012A01DCDB0738D5B0
:1045700001233A4659462846B04701303FF47DAE04
:10458000DDE9092359462846B047013007F1010704
:104590003FF473AED4E912010E9B002203F1FF3801
:1045A0000023FCF74BFDC0B943463A46594628461E
:1045B000B04701300DD160E60123424659462846F6
:1045C000B04701303FF459AE01370E9B013BBB426F
:1045D000F2DC4B4604F15002E4E6002704F11A082D
:1045E000F3E70123E1E70123424659462846B04755
:1045F00001303FF442AE0137E3680F9A9B1ABB4289
:10460000F1DC02E7002704F11908F5E7002B3FF47D
:1046100094AE4FF0000CCDE9051C0DF13301226082
:10462000CDE90308CDE9012100933A464B462846DF
:10463000FFF73AFD07464FE62DE9F04791461F4642
:104640008A680B6906469342B8BF1346C9F8003022
:1046500091F843200C46DDF8208012B10133C9F8EF
:1046600000302368990642BFD9F800300233C9F8F8
:104670000030256815F0060507D104F1190AE36832
:10468000D9F800209B1AAB4229DC94F84330226809
:10469000003318BF012392062ED404F14302394699
:1046A0003046C047013021D02368E56803F0060397
:1046B000042B18BF0025D9F800204FF0000908BFCF
:1046C000AD1AA368226908BF25EAE5759342C4BF05
:1046D0009B1AED181A344D451AD1002008E0012329
:1046E000524639463046C047013003D14FF0FF30C3
:1046F000BDE8F0870135C2E73020E11881F84300BA
:104700005A1C94F845102244023382F84310C4E73F
:104710000123224639463046C0470130E6D009F130
:104720000109D8E72DE9F04301F1430C0C46097E5D
:1047300085B06E291746064698460C9A00F0B3805D
:1047400022D8632936D00AD8002900F0B980582928
:1047500000F0838004F1420584F8421032E06429BD
:1047600001D06929F6D120681368050603F1040118
:104770002AD51B681160002B03DA2D225B4284F8D6
:1047800043206F480A2239E0732900F09D8008D841
:104790006F2920D07029DDD1236843F020032360E6
:1047A00003E0752917D07829D4D17823654884F897
:1047B000453055E0136804F14205191D1B6811606E
:1047C00084F8423001238CE01B6810F0400F116028
:1047D00018BF1BB2CFE713682568181D10602806A4
:1047E00001D51B6802E06806FBD51B886F2914BF42
:1047F0000A2208225248002184F843106568002DDF
:10480000A560C0F29580216821F004012160002B91
:104810003DD1002D40F08E806546082A0BD12368DB
:10482000DB0708D5236962689A42DEBF302305F8AA
:10483000013C05F1FF35ACEB05032361CDF80080A9
:104840003B4603AA21463046FFF7F6FE01304DD124
:104850004FF0FF3005B0BDE8F083394884F84510CB
:10486000136821681D1D1B6815600A060BD5CA0751
:1048700044BF41F0200121601BB9226822F02002D0
:1048800022601022B7E74D0648BF9BB2EFE76546AE
:10489000B3FBF2F102FB1133C35C05F8013D0B469B
:1048A0000029F5D1B9E713682568181D6169106002
:1048B00028061B6801D5196002E06A06FBD519803D
:1048C000002365462361B9E71368191D11601D684F
:1048D00062680021284600F0B1FE08B1401B60600C
:1048E00063682361002384F84330A7E723692A46DD
:1048F00039463046C0470130AAD023689B0713D4FD
:10490000E068039B9842B8BF1846A3E701234A46D4
:1049100039463046C04701309AD00135E368039AE2
:104920009B1AAB42F2DCEBE7002504F11909F5E72D
:10493000002BACD1037804F1420584F842306CE7D7
:10494000C6610008D76100080EB46FF0004100B5E1
:104950009CB01DAB0290069007910491084809494C
:1049600053F8042B0591006802A9019301F06AFA3B
:104970000022029B1A701CB05DF804EB03B0704774
:10498000280000200802FFFF2DE9F74F03690C699A
:104990008046A342C0F28480013C01F1140700F17B
:1049A000140657F8245056F824000135B0FBF5F5ED
:1049B0004FEA840C06EB0C0307EB0C0901939DB343
:1049C0004FF0000A3846B646D34650F8042B93B24F
:1049D00005FB03A3120C4FEA134A05FB02A29BB28C
:1049E000ABEB0303DEF800B04FEA124A1FFA8BFB71
:1049F0005B441FFA82FBDEF800208145CBEB1242BC
:104A000002EB23429BB243EA02434FEA224B4EF8A9
:104A1000043BDAD256F80C3033B9019B043B9E427A
:104A20001A4631D3C8F81040404601F035F8002846
:104A300026DB30464FF0000C013557F8041BD0F848
:104A400000E08BB2ACEB03031FFA8EF213440A0CA6
:104A5000C2EB1E4202EB23429BB243EA0243B9453A
:104A60004FEA224C40F8043BE7D256F8242006EBEC
:104A700084032AB9043B9E421A460BD3C8F810405F
:104A8000284603B0BDE8F08F1268043B002AC9D164
:104A9000013CC4E71268043B002AEFD1013CEAE77D
:104AA0000020EEE7000000002DE9F04F16461F46FB
:104AB000456A95B00446DDF88480CDE902673DB9CA
:104AC000102000F0B3FD6062C0E901550560C560CB
:104AD000636A196851B15A68012393404A608B6038
:104AE000204600F0F8FD0022636A1A603B1EAFBF4B
:104AF0000023012223F000430393ACBFC8F8003029
:104B0000C8F80020AE4BDDF80C8033EA08031BD157
:104B100042F20F73209A1360029B23B9C8F313006B
:104B2000002800F04585229B53B9A64B21E0A64BF7
:104B300006930833229A1360069815B0BDE8F08FEB
:104B4000A04B06930333F5E7DDE90267002200235B
:104B500030463946FCF772FA824660B10123209A4A
:104B60001360229B002B00F02085984B229A136043
:104B7000013B0693E0E712AB019313AB009332467F
:104B80003B46204601F000F8C8F30A558346002D45
:104B90007DD0B046C7F3130343F07F5949F4401961
:104BA000A5F2FF35CDF840A00022894B404649468A
:104BB000FBF7D2FA7CA3D3E90023FBF785FC7CA3A7
:104BC000D3E90023FBF7CAFA064628460F46FBF74F
:104BD00011FC79A3D3E90023FBF776FC02460B46D0
:104BE00030463946FBF7BAFA06460F46FCF76EFA2E
:104BF00000228246002330463946FCF729FA48B1A4
:104C00005046FBF7F7FB32463B46FCF717FA08B96C
:104C10000AF1FF3ABAF1160F5AD8DDE902236D49BD
:104C200001EBCA01D1E90001FCF730FA002851D0AC
:104C300000230AF1FF3A0D93129B5D1B6B1E079335
:104C400043BF0023C5F1010907934FF00009BAF1F2
:104C5000000F41DB079BCDF830A05344079300239E
:104C600008931E9B092B00F28F80052BC4BF043BC9
:104C70001E931E9BC8BF0025A3F10203D8BF0125C8
:104C8000032B00F28D80DFE803F07B7D2F6FDDE9E1
:104C900012531D4405F23240202813DDC0F14000BC
:104CA000029B08FA00F805F2124023FA00F048EAE5
:104CB0000000FBF78FFB01238046A1F1F879013D4D
:104CC000109371E7029BC0F1200003FA00F0F0E7B7
:104CD0000123B0E70D90AFE7CAF10003089300236A
:104CE000A9EB0A090C93BCE7012309931F9B002B36
:104CF00074DD984604930022666A7260042202F111
:104D00001400984271686ED9204600F0B0FC636AC6
:104D100030601B68B8F10E0F069300F2ED80002D95
:104D200000F0EA80DDE90223BAF1000FCDE90E239D
:104D300077DD284A0AF00F034FEA2A1602EBC30375
:104D4000F006D3E90023CDE90A2368D5DDE90E0199
:104D5000214B0325D3E90823FBF7E0FCCDE9020151
:104D600006F00F061C4F4FE0012309931F9B53448D
:104D700003F1010804934346012BB8BF0123BAE7AE
:104D80000023B2E70023F0E70125002309951E93D5
:104D90004FF0FF3300220493984612231F92AAE794
:104DA00001230993F4E700BF61436F63A787D23FF4
:104DB000B3C8608B288AC63FFB799F501344D33F0A
:104DC0000000F07FF1610008E8610008C56100089B
:104DD0000000F83F20620008F861000801230493F6
:104DE00098461A46DAE701317160520087E7F10709
:104DF00008D5DDE90A01D7E90023FBF765FBCDE91A
:104E00000A01013576100837002EF0D1DDE90A23BA
:104E1000DDE90201FBF782FCCDE902011BE002257E
:104E2000A0E700F0A480DDE90E01CAF10006A04B66
:104E300006F00F0203EBC203D3E90023FBF744FBA8
:104E400002250023CDE902019A4F3611002E40F0D1
:104E50008380002BE0D10D9B002B00F08A80DDE9E0
:104E60000223CDE90A23DDE90A010022924BFCF777
:104E7000EFF800287DD0B8F1000F7AD0049B002B0A
:104E800036DDDDE90A0100228C4BFBF71DFBCDE985
:104E90000201049E0AF1FF3701352846FBF7AAFA02
:104EA000DDE90223FBF710FB0022854BFBF756F9E7
:104EB000A1F15075CDE90A010B95002E5CD1DDE919
:104EC000020100227F4BFBF747F90A9A2B46CDE9F6
:104ED0000201FCF7DBF8002840F08182DDE90201E5
:104EE0000A9A05F10043FCF7B3F8002840F07582F8
:104EF000DDE90E23CDE90223139B002BC0F24B8189
:104F0000BAF10E0F00F34781694B03EBCA03D3E9F3
:104F10000023CDE904231F9B002B80F2D780B8F13A
:104F2000000F00F3D38040F05782DDE90401002236
:104F3000644BFBF7C9FADDE90223FCF79DF846460E
:104F40004746002840F02D82069B069A5D1C3123BF
:104F50000AF1010A137028E2F20705D5D7E9002308
:104F6000FBF7B2FA01230135761008376EE7022508
:104F700071E75746464690E74D4B03EBC60353E9AE
:104F80000201099B002B48D002460B4600204E49E7
:104F9000FBF7C4FBDDE90A23FBF7DEF8CDE90A01E4
:104FA000069DDDE90201FCF791F81190FBF722FA6A
:104FB00002460B46DDE90201FBF7CEF8119BCDE975
:104FC0000201303305F8013BDDE90A23FCF740F824
:104FD000002863D1DDE9022300203749FBF7BCF844
:104FE000DDE90A23FCF734F8002840F0B580069B81
:104FF000EB1A9E427FF77CAFDDE90A0100222F4BBE
:10500000FBF762FA0022CDE90A01DDE902012B4B30
:10501000FBF75AFACDE90201C3E7DDE90A23FBF702
:1050200053FA069BCDE90A019D191E46DDE90201EE
:10503000FCF74CF81190FBF7DDF902460B46DDE971
:105040000201FBF789F8119BCDE90201303306F824
:10505000013BAE424FF0000224D1DDE90A011A4BB8
:10506000FBF77CF802460B46DDE90201FCF70EF87F
:10507000002871D1DDE90A2300201349FBF76CF801
:1050800002460B46DDE90201FBF7E2FF00283FF490
:105090002FAF15F8013C6A1E302B01D0BA464AE00A
:1050A0001546F6E7054BFBF70FFACDE90201BDE720
:1050B00020620008F86100080000F03F0000244072
:1050C00000001C40000014400000E03F069DDDE9A8
:1050D0000267DDE9042330463946FBF71FFBFBF787
:1050E000F5FF8146FBF786F9DDE90423FBF7ECF9D0
:1050F00002460B4630463946FBF72EF809F13006DA
:1051000005F8016B069E0246AE1BB0450B4635D135
:10511000FBF724F8DDE9042306460F46FBF7B6FF4C
:10512000C8B9DDE9042330463946FBF787FF10B1E3
:1051300019F0010F0FD15946204600F0CCFA002398
:10514000209A2B700AF101031360229B002B3FF47D
:10515000F3AC1D60F0E4574615F8012C6B1E392A9C
:1051600006D1069A9A4207D13023137013460137AD
:105170001A7801321A7091E71D46EDE70022994B2B
:10518000FBF7A2F90022002306460F46FBF756FF65
:1051900000289ED0CFE7099A002A00F088801E9A46
:1051A000012A6DDC109A002A66D003F233434D4683
:1051B000089E079A01211A4420469944079200F05C
:1051C0002AFB0746002D0BDD079B002B08DDAB42B9
:1051D000A8BF2B46079AA9EB0309ED1AD31A079328
:1051E000089BEBB1099B002B65D08EB13946324646
:1051F000204600F0AFFB5A4601460746204600F025
:1052000013FB59460A90204600F065FA0A9B9B461C
:10521000089B9A1B04D05946204600F09BFB83460E
:105220000121204600F0F7FA0C9B0646002B00F007
:10523000C6811A460146204600F08CFB1E9B06469E
:10524000012B3EDC029B002B37D1039BC3F31303DE
:10525000002B34D1039B23F000431B0D1B052BB106
:10526000079B09F1010901330793012308930C9B64
:10527000002B28D101202EE0129BC3F1360396E7C4
:10528000089B08F1FF36B342B7BF089B9E1BF21A7A
:105290000C9BBFBF08969B180C930026B8F1000F1B
:1052A000B9BFA9EB080500234D46434681E7089E98
:1052B0004D46099F86E7089AADE70023D6E7029B93
:1052C000D4E700230893336906EB8303186900F0E1
:1052D00054FAC0F12000079B184410F01F0047D07B
:1052E000C0F12003042B3BDD079BC0F11C0081446F
:1052F000054403440793B9F1000F05DD59464A46BA
:10530000204600F075FB8346079B002B05DD3146E8
:105310001A46204600F06CFB06460D9B53B33146FF
:10532000584600F0B9FB002824DA002359460A2227
:10533000204600F0E7F9099B0AF1FF3A8346002B6B
:1053400000F04481002339460A22204600F0DAF9B1
:10535000049B0746002B4DDC1E9B022B4ADD11E00F
:10536000C9D0079A1C331A4499441D441346C1E717
:105370000346F6E7B8F1000F36DC1E9B022B33DD47
:10538000CDF81080049B63B931460522204600F019
:10539000B9F901460646584600F07EFB00283FF763
:1053A000D3AD1F9B069D6FEA030A4FF000093146FB
:1053B000204600F090F9002F3FF4BDAEB9F1000F88
:1053C00005D0B94503D04946204600F084F9394656
:1053D000204600F080F9AEE600263746E1E7BA46FF
:1053E0003746B1E500002440099BCDF81080002B22
:1053F00000F0F380002D05DD39462A46204600F0F6
:10540000F7FA0746089B002B4CD07968204600F03D
:105410002EF905463A6907F10C01023292000C3070
:1054200000F01AF901222946204600F0E1FAB946B7
:105430000746069B0793029B03F00103089331463E
:105440005846FFF7A1FA4946054600F1300858468C
:1054500000F022FB3A4602903146204600F036FB2F
:10546000C368024603BB01460990584600F014FB8E
:105470000346099A11462046099300F02CF9099B2E
:10548000A3B91E9A92B9089A82B9B8F1390F29D0F6
:10549000029B002B01DD05F13108079B5D1C83F8A1
:1054A000008084E73846C2E70123E3E7029A002A36
:1054B00004DB23D11E9A0ABB089AFAB9002BECDD53
:1054C00059460122204600F093FA3146834600F007
:1054D000E3FA002803DCE0D118F0010FDDD0B8F1C9
:1054E000390FD8D1079B079A5D1C3923137015F823
:1054F000013C6A1E392B4DD0013352E0079A002B34
:1055000002F1010506DDB8F1390FEBD008F1010811
:10551000079BC4E7069B049AEB1A934205F8018C9B
:1055200021D0594600230A22204600F0EBF8B94565
:1055300083464FF000034FF00A024946204605D14A
:1055400000F0E0F881460746079578E700F0DAF8C2
:105550003946814600230A22204600F0D3F8074648
:10556000F2E74FF0000959460122204600F040FAC8
:105570003146834600F090FA0028B8DC02D118F0DA
:10558000010FB4D115F8013C6A1E302B7FF40FAF28
:105590001546F7E7069B934205D13123069A0AF197
:1055A000010A137003E71546A1E7174BFFF7E1BAAD
:1055B000229B002B7FF4BBAA144BFFF7DABA1E9B89
:1055C000012B7FF73FAE0C9B089353E6049B002B07
:1055D00003DC1E9B022B3FF7D5AE069D3146584695
:1055E000FFF7D2F9069B00F1300805F8018B049A09
:1055F000EB1A9A42B5DD594600230A22204600F0F4
:1056000081F88346EAE700BFC4610008E86100084A
:10561000044B1B68186A044B002808BF1846F0307A
:10562000704700BF280000208C000020024B01467C
:10563000186800F053BB00BF2800002010B5C9B2A5
:1056400002449042034601D1002303E01C7801305C
:105650008C42F6D1184610BD10B5431E0A44914243
:1056600000D110BD11F8014B03F8014FF7E770B5F9
:10567000456A04460E463DB91020FFF7D7FF606229
:10568000C0E901550560C560656AEB6883B1636A6E
:10569000DB6853F82600B8B9012101FA06F56A1D46
:1056A0009200204600F0BFFA60B1C0E901650EE04B
:1056B00021220421204600F0B6FA636AE860DB6824
:1056C000002BE4D1002070BD026843F8262000239F
:1056D000C0E90333F7E770B5446A06460D463CB9A6
:1056E0001020FFF7A3FF7062C0E901440460C460AA
:1056F0003DB1736A6A68DB6853F82210296043F889
:10570000225070BD2DE9F0411F4606460C4600238D
:105710000D6901F1140CDCF80000013381B202FBC9
:105720000171000C0F0C02FB007089B201EB00410B
:105730009D424FEA10474CF8041BECDCD7B1A3683C
:10574000AB4212DC616830460131FFF790FF8046C2
:10575000226904F10C01023292000C30FFF77CFF49
:1057600021463046FFF7B7FF444604EB8503013579
:105770005F6125612046BDE8F081020C12040346FA
:10578000B2B90304102013F07F4F04BF1B0208308E
:1057900013F0704F04BF1B01043013F0404F04BFDF
:1057A0009B000230002B06DB5B0003D50130704705
:1057B0000020E8E7202070470368014613F0070245
:1057C0000BD0DA0723D4980749BF5B089B08012058
:1057D0000B605CBF0B600220704798B2A8B9102024
:1057E0001B0C13F0FF0F04BF1B0A08301A0704BF7D
:1057F0001B0904309A0704BF9B080230DA0702D461
:105800005B0806D001300B6070471046E9E70020C6
:1058100070472020704710B50C460121FFF727FF85
:1058200001224461026110BD2DE9F74F14460A6957
:10583000236988469A42BEBF0B46A0461C46D8F84C
:105840001070D4F81090D8F80830D8F8041007EB8E
:105850000906B342B8BF0131FFF709FF00F1140593
:105860002B46002205EB860E734516D304F1140275
:1058700008F1140102EB890301EB87070093009BF9
:10588000019293420CD8002E03DD5EF8043D002BFC
:105890005DD0066103B0BDE8F08F43F8042BE3E769
:1058A000B2F800B0BBF1000F23D08946AC464FF0F0
:1058B000000859F8044BDCF800A0A3B21FFA8AFADA
:1058C0000BFB03A34FEA144ADCF8004043444FEAC1
:1058D00014480BFB0A84E24604EB13449BB243EAF0
:1058E00004434F454FEA14484AF8043B2BD8CCF800
:1058F0000480019B0432B3F802A0BAF1000F20D05B
:105900008946A8464FF0000B2B68B9F800C0B8F8DC
:1059100002409BB20AFB0C44C4465C4443EA044385
:105920004CF8043B59F8043BB8F804B01B0C0AFBD4
:1059300003B34F4503EB14434FEA134B05D8C8F8A4
:10594000043004359BE7D446B3E7E046DDE7013E8B
:1059500099E700002DE9F843154612F003020646C8
:105960000F4607D0214C013A002354F82220FFF7BC
:10597000C9FE0746AD1035D0746A3CB91020FFF758
:1059800055FE7062C0E901440460C460D6F824800A
:10599000D8F808404CB940F271213046FFF73BFF80
:1059A00000230446C8F8080003604FF00008EB0726
:1059B0000AD5394622463046FFF736FF814639463A
:1059C0003046FFF788FE4F466D100BD0206838B97F
:1059D000224621463046FFF727FF2060C0F80080AE
:1059E0000446E4E73846BDE8F88300BFE8620008F3
:1059F0002DE9F0470C460746164623694FEA621A1E
:105A00000AEB03094968A36809F10105AB4232DBDF
:105A10003846FFF72CFE002380461A4600F1140199
:105A200053452BDB20692AEAEA7A04F1140316F0C5
:105A30001F0201EB8A0103EB800C25D00020C2F18C
:105A4000200E8A461E68964030434AF8040B53F8ED
:105A5000040B9C4520FA0EF014D8486008B109F1F7
:105A60000205013D3846C8F810502146FFF733FEC5
:105A70004046BDE8F08701315B00C7E741F82320CD
:105A80000133CDE75146DCE7043953F8042B9C453C
:105A900041F8042FF9D8E4E703690A6930B59B1A85
:105AA0000CD19200143014318418114454F8045D60
:105AB00051F8042D954203D005D30123184630BD7B
:105AC000A042F3D3FAE74FF0FF33F7E72DE9F047B1
:105AD0000D460746114628461446FFF7DDFF061E11
